:0F00030024444D2C30332C414C4C2C36370D0AF5
:100AA0009002E6EBF0A3EAF0A3E9F0A3ECF0A3EDEB
:010AB000F055
:100AB100E49002EEF0FDFCD39002EAE09D9002E9A1
:100AC100E09C40259002EEE0FF9002E6E0FBA3E00F
:100AD100FAA3E0F98D828C83120833FEEF6E900247
:100AE100EEF00DBD00010C80CE9002EEE0FF540F40
:100AF100FE9002EBE0FBA3E0FAA3E0F9900001EE27
:100B0100120872EFC4540F1208609002EBE0FBA3CD
:100B1100E0FAA3E0F9900001120833FFD364809456
:100B2100895006EF2430FF80099000011208332418
:100B310037FF900001EF12087212081AFFD3648088
:100B410094895006EF2430FF80119002EBE0FBA363
:100B5100E0FAA3E0F912081A2437FF9002EBE0FB58
:0F0B6100A3E0FAA3E0F9EF1208609002EEE0FFC4
:010B70002262
:10091F0078D77C027D017BFF7A0079037E007F0F01
:10092F001207F4E49002D4F0A3F0900205F0A3F0C4
:10093F009001FFF0A3F0900064F0A3F090006AF034
:10094F00A3F09002D2F0A3F090006CF0900135F07C
:10095F00D2977FC8FE120E64C297120E2DE490023A
:10096F00D4F0A3F0120E60120E60120E609002D43B
:10097F00E0FEA3E0FF7C007D021208E9EC4D24FFAE
:10098F0092A0E004F070069002D4E004F0C390024D
:10099F00D5E094909002D4E0648094CC40C6E4906B
:1009AF0002D4F0A3F09002D4E0FEA3E0FFC3940FB3
:1009BF00EE64809480501F74D72FF58274023EF539
:1009CF0083E0FF1200269002D5E004F070D790026A
:1009DF00D4E004F080CF90006CE06401704DF09093
:1009EF0002D6F090006EE024BD602724FC602A241C
:1009FF00F7601024FD600914600B2403702080122F
:100A0F0000801B800D90006FE024AC701112004627
:100A1F00800C90006FE0FF8005900071E0FFE49084
:100A2F00006CF09002D2F090006AF0900135E06413
:100A3F000170A3F0900137E024B7604224F9601DE4
:100A4F0024FE600C146035240E7036120B71803149
:100A5F00900138E024BC70291204FA8024900138E8
:100A6F00E024AD6012240C701890013DE0B45402E4
:100A7F00800F1202B8800A120C1680058003120C28
:100A8F00BBE4900135F09002D3F090006BF00209B7
:010A9F00E571
:100E2D0053877F759850438E40538EFE53890F43E1
:100E3D008920758BDC758DDCC2ABD28ED2AFD2AC76
:100E4D00538EF7759A50438E04759CDC438E107546
:030E5D00AF0322BE
:080031008F993099FDC299225C
:0B0026008F9BE59A30E1FB539AFD220E
:03002300020D606B
:100D6000C0E0C083C082C0D075D000C004C005C040
:010D7000077B
:100D7100309844C2AC3098FDC298AF99EF24DC7032
:100D81000C9002D2E004F090006AE4800B9002D251
:100D9100E004F090006AE004F0E0FD3395E0FC74BB
:100DA1006D2DF58274003CF583EFF0EFB40AC6D2E5
:070DB100AC90006C7401F02E
:0F0DB800D007D005D004D0D0D082D083D0E03285
:03004300020DC7E4
:100DC700C0E0C083C082C0D075D000C002C003C0DD
:030DD70006C0074C
:100DDA00E59A30E03D75AF02E59A30E0FB539AFEA2
:100DEA00AF9B7E0090006BE0FB3395E0FA74362BE4
:100DFA00F58274013AF583EFF090006BE004F0900D
:100E0A0002D3E004F0EF640A70CE75AF03900135A7
:020E1A0004F0E2
:100E1C00D007D006D003D002D0D0D082D083D0E07F
:010E2C003293
:040E600074FFFFFE1E
:100E6400E4FDFCC3ED9FEE6480F8EC6480985015BB
:100E7400E4FBFA0BBB00010AEB647D4A70F50DBD7F
:050E840000010C80DEFE
:010E89002246
:1002B8009000687406F0E49002D6F0900064F0A311
:1002C800F090026D7424F09002087450F0A3744901
:1002D800F0A3744EF0A37446F0A3742CF0E49002DB
:1002E800D4F0A3F09002D4E0FEA3E0FFD394C8EECC
:1002F80064809480400302038B74362FF582740166
:100308003EF583E0FF640A607A9002D4E0FCA3E043
:10031800246DF58274003CF583E0B42C069002D677
:10032800E004F09002D6E024FD600A24FE60082470
:10033800FE6018803D80269002D4E0FEA3E02436BB
:10034800F58274013EF583E0FF80129002D4E0FE4E
:10035800A3E02436F58274013EF583E0FF9000683F
:10036800E0246DF582E43402F583EFF0900068E054
:1003780004F09002D5E004F070069002D4E004F096
:100388000202EC900068E0246DF582E43402F58303
:10039800742CF0900201E0FF900202E0C39FFFE49A
:1003A8009400CF2408FBE43FFA7C007D0AAF03FEEB
:1003B800120894EF2430900271F07C007D0AAF039C
:1003C800AE02120894ED2430A3F0900201E0FF90F1
:1003D8000202E0C39FFFE49400CF24FAFBEF34FF4E
:1003E800FA7C007D0AAF03FE120894EF24309002D5
:1003F8007DF07C007D0AAF03AE02120894ED243034
:10040800A3F0900064E4F0A304F0900202E0FF90EF
:100418000064E0FCA3E0FDD39F7480F8EC6480984E
:100428005028746D2DF58274023CF583E0FF74FF4B
:100438002DF58274FF3CF583EFF0900065E004F041
:1004480070C8900064E004F080C0900202E0FD7C77
:10045800009002EB7401F0A37402F0A37403F07B24
:10046800017A007900120AA090026CEFF090020362
:10047800E0FF900202E0FE246EF582E43402F58388
:10048800EFF0900204E0FF746F2EF582E43402F579
:1004980083EFF074702EF582E43402F583740DF066
:1004A80074712EF582E43402F583740AF0E4900244
:1004B800D4F0A3F0900202E02404FFE433FE90029B
:1004C800D4E0FCA3E0FDD39FEE6480F8EC64809850
:1004D800501F746D2DF58274023CF583E0FF120005
:1004E800319002D5E004F070CB9002D4E004F080A3
:0204F800C3221D
:1004FA00900066740BF0E49002D6F0900064F0A3CA
:10050A00F090026D7424F0A37443F0A3744FF0A327
:10051A007455F0A314F0A3742CF0A37430F0A374F0
:10052A002CF0A37431F0A3742CF0A37430F0E4908F
:10053A0002D4F0A3F09002D4E0FEA3E0FFD394C863
:10054A00EE64809480400302062274362FF582748A
:10055A00013EF583E0FF640A7003020622EFB42C21
:10056A00069002D6E004F09002D6E024FE600A2447
:10057A00FE606B14606A0206119002D4E0FEA3E0EA
:10058A002436F58274013EF583E0FF900066E0FEB2
:10059A00246DF582E43402F583EFF0746E2EF58251
:1005AA00E43402F583742CF0746F2EF582E434027D
:1005BA00F5837430F074702EF582E43402F5837496
:1005CA002CF074712EF582E43402F5837430F090C5
:1005DA000066E004F0E02404900067F080298000BF
:1005EA009002D4E0FEA3E02436F58274013EF5833E
:1005FA00E0FF900067E0246DF582E43402F583EFB2
:10060A00F0900067E004F09002D5E004F0700690E4
:10061A0002D4E004F002053F900067E0246DF58201
:10062A00E43402F583742CF0E4900064F0A3F090B3
:10063A000067E0FF900064E0FCA3E0FDD39F7480B4
:10064A00F8EC6480985028746D2DF58274023CF59C
:10065A0083E0FF74002DF58274003CF583EFF0907F
:10066A000065E004F070C8900064E004F080C09077
:10067A000067E02401FDE433FC9002EB7401F0A36F
:10068A007402F0A37403F07B017A007900120AA0C5
:10069A0090026CEFF0900203E0FF900067E0FE2406
:1006AA006EF582E43402F583EFF0900204E0FF7401
:1006BA006F2EF582E43402F583EFF074702EF58222
:1006CA00E43402F583740DF074712EF582E4340279
:1006DA00F583740AF0E49002D4F0A3F0900067E086
:1006EA002404FFE433FE9002D4E0FCA3E0FDD39F90
:1006FA00EE6480F8EC648098501F746D2DF5827456
:10070A00023CF583E0FF1200319002D5E004F0705C
:0A071A00CB9002D4E004F080C3226B
:100046009002017406F0E49002D6F0900064F0A3EA
:10005600F09002077424F0A37453F0A37444F0A341
:10006600742CF0E49002D4F0A3F09002D4E0FEA346
:10007600E0FFD394C8EE64809480400302014B7481
:100086006D2FF58274003EF583E0FF640A7003026B
:10009600014BEFB42C069002D6E004F09002D6E0B5
:1000A60024FE600D14606214606124FE605F02012C
:1000B6003A9002D4E0FEA3E0246DF58274003EF58A
:1000C60083E0FF900201E0FE2407F582E43402F5A6
:1000D60083EFF074082EF582E43402F583742CF075
:1000E60074092EF582E43402F5837431F0740A2E15
:1000F600F582E43402F583742CF0900201E004F0FA
:10010600E02405900202F0802B800280009002D449
:10011600E0FEA3E0246DF58274003EF583E0FF90D7
:100126000202E02407F582E43402F583EFF0900240
:1001360002E004F09002D5E004F070069002D4E0EC
:1001460004F0020070900202E0FF2407F582E43416
:1001560002F583742CF0900201E0FDC3EF9DFFE4ED
:100166009400CF2408FBE43FFA7C007D0AAF03FE2F
:10017600120894EF243090020BF07C007D0AAF0346
:10018600AE02120894ED2430A3F0900201E0FF9035
:100196000202E0C39FFFE49400CF24FAFBEF34FF92
:1001A600FA7C007D0AAF03FE120894EF2430900219
:1001B60017F07C007D0AAF03AE02120894ED2430DE
:1001C600A3F0900064E4F0A304F0900202E0FF9034
:1001D6000064E0FCA3E0FDD39F7480F8EC64809893
:1001E600502874072DF58274023CF583E0FF74FFF6
:1001F6002DF58274FF3CF583EFF0900065E004F086
:1002060070C8900064E004F080C0900202E0FD7CBB
:10021600009002EB7401F0A37402F0A37403F07B68
:10022600017A007900120AA090026CEFF0900203A6
:10023600E0FF900202E0FE2408F582E43402F58332
:10024600EFF0900204E0FF74092EF582E43402F523
:1002560083EFF0740A2EF582E43402F583740DF010
:10026600740B2EF582E43402F583740AF0E49002EE
:10027600D4F0A3F0900202E02404FFE433FE9002DF
:10028600D4E0FCA3E0FDD39FEE6480F8EC64809894
:10029600501F74072DF58274023CF583E0FF1200AF
:1002A600269002D5E004F070CB9002D4E004F080F2
:0202B600C32261
:100B71009000697401F0E49002D6F0900064F0A353
:100B8100F090026D7424F09002D4E4F0A304F0908C
:100B910002D4E0FEA3E0FFD394C8EE6480948050B9
:100BA1003574362FF58274013EF583E0FF640A60E7
:100BB10025900069E0246DF582E43402F583EFF0BD
:100BC100900069E004F09002D5E004F070C1900259
:100BD100D4E004F080B9E49002D4F0A3F09000696D
:100BE100E0FF9002D4E0FCA3E0FDD39F7480F8EC19
:100BF100648098501F746D2DF58274023CF583E07A
:100C0100FF1200319002D5E004F070D19002D4E0DF
:050C110004F080C9227F
:100C16009001FE7401F0E49002D6F0900064F0A317
:100C2600F090026D7424F09002D4E4F0A304F090E6
:100C360002D4E0FEA3E0FFD394C8EE648094805013
:100C46003574362FF58274013EF583E0FF640A6041
:100C5600259001FEE0246DF582E43402F583EFF081
:100C66009001FEE004F09002D5E004F070C190021D
:100C7600D4E004F080B9E49002D4F0A3F09001FE31
:100C8600E0FF9002D4E0FCA3E0FDD39F7480F8EC73
:100C9600648098501F746D2DF58274023CF583E0D4
:100CA600FF1200319002D5E004F070D19002D4E03A
:050CB60004F080C922DA
:100CBB009000637401F0E49002D6F0900064F0A30E
:100CCB00F090026D7424F09002D4E4F0A304F09041
:100CDB0002D4E0FEA3E0FFD394C8EE64809480506E
:100CEB003574362FF58274013EF583E0FF640A609C
:100CFB0025900063E0246DF582E43402F583EFF078
:100D0B00900063E004F09002D5E004F070C1900213
:100D1B00D4E004F080B9E49002D4F0A3F09001FE8B
:100D2B00E0FF9002D4E0FCA3E0FDD39F7480F8ECCD
:100D3B00648098501F746D2DF58274023CF583E02E
:100D4B00FF1200319002D5E004F070D19002D4E094
:050D5B0004F080C92234
:03000000020012E9
:0C001200787FE4F6D8FD75810702091F15
:10072400E709F608DFFA8046E709F208DFFA803EB7
:1007340088828C83E709F0A3DFFA8032E309F608A4
:10074400DFFA8078E309F208DFFA807088828C830C
:10075400E309F0A3DFFA806489828A83E0A3F608C0
:10076400DFFA805889828A83E0A3F208DFFA804C9A
:1007740080D280FA80C680D4806980F28033801071
:1007840080A680EA809A80A880DA80E280CA8033DA
:1007940089828A83ECFAE493A3C8C582C8CCC58352
:1007A400CCF0A3C8C582C8CCC583CCDFE9DEE78022
:1007B4000D89828A83E493A3F608DFF9ECFAA9F0A1
:1007C400EDFB2289828A83ECFAE0A3C8C582C8CCF7
:1007D400C583CCF0A3C8C582C8CCC583CCDFEADE10
:1007E400E880DB89828A83E493A3F208DFF980CC72
:1007F40088F0EF60010E4E60C388F0ED2402B4046B
:100804000050B9F582EB2402B4040050AF23234511
:06081400822390077473BB
:10081A00BB010689828A83E0225002E722BBFE02DC
:09082A00E32289828A83E493220F
:10083300BB010CE58229F582E5833AF583E022507A
:1008430006E92582F8E622BBFE06E92582F8E222C4
:0D085300E58229F582E5833AF583E49322DE
:10086000BB010689828A83F0225002F722BBFE0177
:02087000F32271
:10087200F8BB010DE58229F582E5833AF583E8F0BC
:10088200225006E92582C8F622BBFE05E92582C868
:02089200F22250
:10089400BC000BBE0029EF8DF084FFADF022E4CC48
:1008A400F875F008EF2FFFEE33FEEC33FCEE9DEC11
:1008B400984005FCEE9DFE0FD5F0E9E4CEFD22ED57
:1008C400F8F5F0EE8420D21CFEADF075F008EF2FA1
:1008D400FFED33FD4007985006D5F0F222C398FD92
:0508E4000FD5F0EA222F
:1008E900C2D5EC30E709B2D5E4C39DFDE49CFCEE2A
:1008F90030E715B2D5E4C39FFFE49EFE120894C306
:10090900E49DFDE49CFC800312089430D507C3E400
:060919009FFFE49EFE2298
:00000001FF
