:020000040800F2
:1000000098710020C1010008EF160008351600089D
:10001000ED160008C30D0008A9300008000000001C
:100020000000000000000000000000000D2B000890
:100030003D120008000000006D170008E52B0008C5
:10004000DB010008DB010008DB010008DB01000820
:10005000DB010008DB010008DB010008DB01000810
:10006000DB010008DB010008DB010008DB01000800
:10007000DB010008DB010008DB010008DB010008F0
:10008000DB010008DB010008DB010008DB010008E0
:10009000DB010008DB010008DB010008DB010008D0
:1000A000DB010008DB010008DB010008DB010008C0
:1000B000DB010008DB010008DB010008DB010008B0
:1000C000DB010008DB010008DB010008DB010008A0
:1000D000DB010008DB010008DB010008DB01000890
:1000E000DB010008DB010008DB010008DB01000880
:1000F000DB010008DB010008DB010008DB01000870
:10010000DB010008351A0008DB010008DB010008EC
:10011000DB010008DB010008DB010008DB0100084F
:10012000DB010008DB010008DB01000829100008E2
:10013000DB010008DB010008DB010008DB0100082F
:10014000DB010008DB010008DB010008DB0100081F
:10015000DB010008DB010008DB010008DB0100080F
:10016000DB010008DB010008DB010008DB010008FF
:10017000DB010008DB010008DB010008DB010008EF
:10018000DB010008DB010008DB010008DB010008DF
:10019000DB010008DB010008DB010008DB010008CF
:1001A000DB010008DB010008DB010008DFF80CD0F0
:1001B00000F0CCFB00480047094F00089871002070
:1001C0000648804706480047FEE7FEE7FEE7FEE7F1
:1001D000FEE7FEE7FEE7FEE7FEE7FEE7E92B0008A5
:1001E000AD0100082DE9F05F0546002092469B46D0
:1001F00088460646814640241BE02846414647463D
:10020000224600F06EFA53465A46C01A914110D366
:1002100011461846224600F055FA2D1A67EB0108E0
:100220004F4622460120002100F04CFA17EB00094E
:100230004E41201EA4F10104DFDC484631462A4627
:100240004346BDE8F09F000000487047A0680008E2
:1002500010B50446FFF7F8FF0068005D00F00100EC
:1002600010BD40EA01039B0703D009E008C9121F33
:1002700008C0042AFAD203E011F8013B00F8013B60
:10028000521EF9D27047D2B201E000F8012B491E8C
:10029000FBD270470022F6E710B513460A46044623
:1002A0001946FFF7F0FF204610BD421C10F8011B55
:1002B0000029FBD1801A7047CBB203E00178994244
:1002C00003D0401C521EF9D20020704730B50446BE
:1002D0000020034600E05B1C934203D2E05CCD5C4F
:1002E000401BF8D030BD2DE9F04791460F468046BF
:1002F0000446002614F8015B2DB1FFF7A5FF006846
:10030000405DC007F6D12B2D02D02D2D18D0641ED4
:100310004A463946204600F006FA27B13968A1421C
:1003200001D1C7F8008071054FF002040BD540429F
:10033000002803DD02F0FCFE0460A007BDE8F087A2
:1003400046F48066E4E70028F8DA02F0F1FE046083
:100350006FF00040F2E72DE9FE4F804681EA03008E
:10036000C00F0C46009021F0004123F00045B8EB8F
:100370000200A94105D24046214690461C460B4644
:10038000024623F00040104347D0270DC7F30A0070
:10039000C3F30A510290401A019040286BDAC3F36C
:1003A000130040F4801B0098924620B10023D2EB4A
:1003B000030A63EB0B0B01985946C0F1400250460B
:1003C00000F080F906460D4650465946019A00F065
:1003D00098F910EB08006141002487EA115284EA81
:1003E000E7731A4340D0009A62B3019A012A4FEA98
:1003F000075215DC001B61EB02014FF0004202EADC
:100400000752CDE90042001C41F5801132462B46CF
:1004100000F035FA03B0BDE8F08F40462146F9E719
:10042000001B61EB0201001C41F5801300185B41C9
:100430002018A2F5001747EB030140EAD570B61962
:100440006D4111E06D084FEA360645EAC0754FEA86
:100450000752001B61EB0201001C41F580114908A5
:100460004FEA30000019514132462B4603B0BDE837
:10047000F04F00F0F5B90098012240000023D0EBC6
:10048000020263EBE073009821464FEAE074B8EB98
:10049000000061EB0401E9E783F000435BE781F0D2
:1004A000004158E72DE9FE4F81EA030404F00044BF
:1004B00021F0004100944FF0000B23F0004350EA7C
:1004C00001045ED052EA03045BD0C3F30A54C1F3C3
:1004D0000A552C44A4F2F3340194A0FB0254C1F356
:1004E000130141F48011C3F3130343F4801301FBA0
:1004F000024400FB034E840A970A44EA815447EA07
:100500008357A4FB076802958D0A05FB07854FEA10
:10051000932C04FB0C542705029D4FEA065847EA2A
:100520001637B5EB08056EEB070C870E920E47EAFF
:10053000811742EA8312A7FB0201B6EB0B0164EBC1
:1005400000042B0D43EA0C335E1844EB1C50DA46D2
:100550005146E7FB0201C5F313044FEA0B3343EAAC
:1005600014534FEA0432019C43EA0603A4F10C043D
:100570000294009CCDE900B400F081F903B0BDE81D
:10058000F08F00200146F9E72DE9F04D81EA0304E0
:1005900004F0004B21F0004514464FF0000A23F010
:1005A000004150EA050220D054EA01021DD0C5F3F3
:1005B0000A570246C5F31303C1F31300C1F30A56E9
:1005C00040F4801543F48013A7EB0608101BD646B1
:1005D00008F2FD3873EB050002D308F1010801E0D1
:1005E00092185B41B8F1000F03DA00200146BDE824
:1005F000F08D00204FF48011064684460EE0171B54
:1006000073EB050705D3121B63EB050306434CEAA6
:10061000010C49084FEA300092185B4150EA01078B
:10062000EDD152EA030012D082EA040083EA050108
:10063000084305D0101BAB4106D20122002306E07F
:1006400000224FF0004302E06FF0010253101AEB5A
:1006500006004CEB085110EB0A0041EB0B01BDE822
:10066000F04D00F0FDB8000030B5041E71F100043B
:1006700004DB4FF00044404264EB0101141E73F1AF
:10068000000405DB1C464FF00043524263EB0403B9
:10069000994208BF904230BD30B50B46014600205C
:1006A0002022012409E021FA02F59D4205D303FA34
:1006B00002F5491B04FA02F52844151EA2F10102B5
:1006C000F1DC30BD202A04DB203A00FA02F10020E0
:1006D00070479140C2F1200320FA03F31943904080
:1006E0007047202A04DB203A21FA02F000217047EB
:1006F00021FA02F3D040C2F120029140084319468A
:100700007047202A06DBCB17203A41FA02F043EA71
:10071000E07306E041FA02F3D040C2F120029140BA
:100720000843194670472DE9F05F8246007800279C
:1007300015468B460AF10104B946302801D09DB117
:1007400013E014F8010B0127782803D0582801D0B2
:1007500045B10AE00DB1102D07D10027102514F87E
:10076000010B02E0082500E00A250026B0460EE055
:1007700005FB080005FB06F1012701EB10461FFAF7
:1007800080F8B6F5803F00D3B94614F8010B29462E
:1007900000F0EEF80028EBDABBF1000F05D00FB146
:1007A000641E00E05446CBF80040B9F1000F06D0BB
:1007B00002F0BEFC02210160C81EBDE8F09F48EABD
:1007C0000640FAE70FB4002300B589B00CA90091E8
:1007D0000B996FF00042CB601E4B06931E4B0793A4
:1007E0000423CDE901321D4A089202466B460020DF
:1007F00000F04CF909B05DF814FB70B586B0064600
:100800004FF0FF300091CDE90101002015460C4664
:1008100004903246694604A8FFF7D4FF03460498C3
:10082000211825B108B10A4600E022462A600028B6
:100830000DD0002B02DD0098884208D0081B0094E0
:10084000CDE901043246694604A8FFF7BBFF06B0B4
:1008500070BD0000C50C0008E30C00085102000840
:1008600010B5141E73F1000408DA401C41F10001B8
:1008700092185B411A4301D120F0010010BD2DE90F
:10088000F04D92469B4611B1B1FA81F202E0B0FA06
:1008900080F220329046FFF715FF04460F4640EAEB
:1008A0000A0041EA0B0153465A46084313D0114649
:1008B00053EA010019D0C8F140025046FFF711FF7A
:1008C00005460E46504659464246FFF7FBFE084392
:1008D00005D0012004E020463946BDE8F08D002017
:1008E000054346EAE0762C4337430A986305E40A59
:1008F000A0EB08000022FD0A44EA47540A3002D562
:1009000000200146E9E7010510196941DDE90845C4
:1009100000196941BDE8F04DA2E7C1F30A52C1F3E5
:10092000130140F2FF3341F480119A4202DA0020B1
:100930000146704740F233439A42A2F2334202DC4E
:100940005242FFF7CEBEFFF7BDBE0000064C074D7A
:1009500006E0E06840F0010394E80700984710348F
:10096000AC42F6D3FFF726FC586900087869000806
:100970003A2800D2303820F02002412A01D3A2F1D7
:100980003700884201D34FF0FF3070472DE9FF4F09
:10099000087881B09946FF2805D0491C2D2804D03D
:1009A0000024002308E000230BE00124F9E703EB17
:1009B000830300EB4303491C0878FF28F7D104B1F7
:1009C0005B4200200090147801462D2C01D02B2C86
:1009D00004D1521C2D2C12D000240094002516782E
:1009E000FF2E0ED00A24A0FB04C801FB04810027BF
:1009F00000FB0711521C16EB0C006941EFE70124C4
:100A0000EBE7994450EA01020ED00024AA4D264695
:100A1000DFF8A88200F076F982468B46B9F1000033
:100A200009DAC9F100071BE001980021C0E90011B3
:100A300005B0BDE8F08F074612E0F80707D0224660
:100A40002B4630464146FFF72DFD06468846224696
:100A50002B4610461946FFF725FD04460D467F102C
:100A6000002FEAD1B9F1000F3246434650465946AD
:100A700002DAFFF789FD01E0FFF714FD009A0AB1E1
:100A800081F00041019AC2E90001D1E72DE9FF4F51
:100A90001F468DB0D7E901464FF0FF382E2045465E
:100AA0004FF000090B90B9696D1C0E988847396AA0
:100AB000824688470028F6D1BAF1FF3F0AD024F4D5
:100AC000D064002E11DDBAF12B0F08D0BAF12D0F32
:100AD0000BD102E0404611B0ABE744F48064B96941
:100AE0006D1C0E9888478246761E6946600501D5C2
:100AF0002D2000E02B208DF8000001F1010B0DF1FD
:100B0000200809E0B9696D1C0E98884782460F9845
:100B100044F40074761E0560002E02DDBAF1300F39
:100B2000F0D00B998A453ED144F0800406E00F993D
:100B3000681CA9F1010944F400740860B9696D1CCE
:100B4000761E0E98884782463028F0D02BE00B990D
:100B50008A4505D1200603D444F08004761E18E0AF
:100B6000504602F0ABFB08B30DF11301761E44F4BE
:100B700000748B4508D2AAF130000BF8010B200657
:100B800007D5A9F1010003E0200602D409F1010014
:100B90008146A00502D50F99681C0860B9696D1CD3
:100BA0000E9888478246002ED1DC53E0002E51DD9E
:100BB000BAF1650F02D0BAF1450F4BD1A00549D566
:100BC000B9696D1C24F44074761E0E9888478246DD
:100BD000002E0CDD2B2804D0BAF12D0F07D144F4E0
:100BE0008074B9696D1C0E9888478246761EE005B0
:100BF00001D52D2100E02B2108F8011BCDF82C8018
:100C000021E00DF12901761E44F4007488450CD2D0
:100C1000AAF1300010F0FF0088F8000002D10B9913
:100C2000884509D908F1010806E0E00501D5244806
:100C300001E042F20F708146B9696D1C0E98884739
:100C400082460F980560002E04DD504602F036FB08
:100C50000028D6D1F9690E988847FF208BF800004C
:100C600088F800000020069007904B466A4608A9C5
:100C700006A8FFF78BFEA00502D46FF001002AE75B
:100C800014F0240F0AD0E00714D1DDE90612386809
:100C9000031D3B600068C0E900120BE0DDE90601BE
:100CA00000F03CF80146E00704D13868021D3A60C4
:100CB0000068016028460EE7000024400000F03F75
:100CC000F1D8FFFF426842B1016811F8013B23B13E
:100CD000521EC0E90012184670470121C160881EEB
:100CE000704742685AB1C368016843B983688B4250
:100CF00005D0491E521CC0E90012002070474FF079
:100D0000FF3070470EB540F2334202920022CDE927
:100D100000221346FFF7B3FD03B000BD01F000430E
:100D200030B421F0004150EA010206D00A0DA2F5CC
:100D30006072C1F31301002A02DC30BC002070474E
:100D4000440F44EAC104C100E01830BC00EBC250BB
:100D5000AFF300800029A8BF7047401C490008BFBE
:100D600020F00100704710B4B0FA80FC00FA0CF0DB
:100D700050EA010404BF10BC704749B1CCF1200413
:100D800021FA04F411FA0CF118BF012121430843A0
:100D9000A3EB0C01CB1D4FEA00614FEA102042BFCC
:100DA000002010BC704700EBC35010440029A4BFC2
:100DB00010BC7047401C490008BF20F0010010BC67
:100DC0007047FEE770B500254FF4803400E0641EE4
:100DD00024B1802000F008FE0028F8D02CB140F2A9
:100DE000FF5000F0BFFD284670BD032070BD00001D
:100DF00070B5054600243B49086800E0086810F01B
:100E0000450FFBD0410705D50324042000F0AAFDBF
:100E1000204670BDC00705D00124012000F0A2FDCE
:100E2000204670BD00F0DAFDA84201D0102070BD50
:100E300040F2FF5000F096FD002000F0F1FD2A493D
:100E4000084201D1204670BD002801DA1C2070BD87
:100E5000410001D5092070BD810001D50A2070BD77
:100E6000C10001D50B2070BD010101D50C2070BD62
:100E7000410101D50D2070BDC10101D50E2070BD0D
:100E8000010201D50F2070BD410201D5102070BDB7
:100E9000810201D5112070BDC10201D5122070BDA3
:100EA000010301D5132070BD410301D5142070BD8D
:100EB000810301D5152070BDC10301D5162070BD79
:100EC000010401D5172070BD410401D5182070BD63
:100ED000810401D5192070BD000701D51A2070BD0D
:100EE000204670BD342C014008E0FFFD10B5002401
:100EF0000E4A116800E0116811F0450FFBD0480759
:100F000005D50324042000F02DFD204610BDC807A0
:100F100005D00124012000F025FD204610BD40F23F
:100F2000FF5000F01FFD204610BD0000342C014092
:100F300010B500240A4A116800E0116811F0450F4D
:100F4000FBD0480705D50324042000F00BFD204604
:100F500010BD40F2FF5000F005FD204610BD00001E
:100F6000342C014070B506460C4600251C4A10681A
:100F700000E0106810F0450FFBD0410705D50324B1
:100F8000042000F0EFFC204670BDC00705D001240E
:100F9000012000F0E7FC204670BD00F01FFDB042CC
:100FA00001D0102070BD40F2FF5000F0DBFC0020AB
:100FB00000F036FD10F4604F03D0810405D51320F6
:100FC00070BD000C2080284670BD410401D5102062
:100FD00070BD000401D50F2070BD284670BD000013
:100FE000342C014010B500204FF480310D4B1A68AD
:100FF00001E0491E1A6812F0450F01D10029F8D10D
:1010000009B1510705D50324042000F0ABFC2046AC
:1010100010BD5106FCD50024402000F0A3FC204662
:1010200010BD0000342C014001F09EB9074A9042E7
:1010300001D2074801E005481038064A8B0001EA52
:10104000020101D5C16070478160704710640240A1
:10105000006002407D0F7D0F002904D0016841F03F
:10106000010101607047016821F0010101607047D2
:101070002DE9F043016821F00101016000210160C8
:1010800041608160C1600161212141613E493E4A68
:1010900010394FF03D08904203D1C1F80880BDE8F7
:1010A000F083394A4FF474651832904201D18D6053
:1010B000F5E7354A4FF474163032904201D18E6014
:1010C000EDE7314A4FF074674832904201D18F60AA
:1010D000E5E72D4B2D4A6033984201D1CA60DEE727
:1010E000294C2B4B7834A04201D1CB60D7E7DFF8F5
:1010F00098C0284C0CF1900C604501D1CC60CEE733
:10110000DFF884904FF03D5C09F1A809484502D111
:10111000C1F80CC0C3E72049DFF87C900839484586
:1011200002D1C1F80080BAE7DFF86C8008F1180836
:10113000404501D10D60B2E7174D3035A84201D1CD
:101140000E60ACE7144D4835A84201D10F60A6E708
:10115000114D11496035091FA84201D10A609EE76F
:101160000D4A7832904201D10B6098E70A4A9032DA
:10117000904201D10C6092E7074AA83290428ED18A
:10118000C1F800C08BE70000106002403D00002065
:10119000400F002000003D2010640240002904D0D0
:1011A000016841F0200101607047016821F02001D1
:1011B000016070470B0609D522B1436943F08003F3
:1011C000436103E0436923F080034361802905D034
:1011D00001F01E011AB102680A43026070470268FA
:1011E0008A4302607047000030B50368124A13401A
:1011F000CC680A682243D1E905452C432243CC69D7
:1012000022430C6A22434C6A22438C6A22434C6B71
:1012100022438C6B22431A430260426922F0070387
:10122000D1E90B2422431A4342610A6942604A68A9
:1012300082608968C16030BD3F801CF0704700004B
:1012400070B586B00121084600F092FA0121102005
:1012500000F0AAFA1E4E07220A21304600F0D8F903
:1012600007220921304600F0D3F900248DF81640FA
:1012700001208DF8170002258DF8145041020491C9
:101280008DF8155004A9304600F084F98DF81450FB
:101290006802049004A9304600F07CF94FF4E13074
:1012A0000090ADF80440ADF80640ADF80840ADF848
:1012B0000C400C20ADF80A00064C6946204601F0AF
:1012C00091FE0121204601F079FE06B070BD0000BC
:1012D00000000240001001402DE9FC470E460024AA
:1012E000002700970197574D4FF0080AC5F800A056
:1012F000102068604FF04009C5F80890EF604FF487
:101300008068C5F81080284600F0C0FB1020FFF769
:101310006FFD002832D14C48008900042860372036
:101320006860C5F80890EF60C5F81080284600F0A6
:10133000ADFB3720FFF75CFD00281FD1411E05F1F2
:1013400014000160C0F804A0302181600221C16056
:1013500007610121416100F01DFB2F6033206860AF
:10136000C5F80890EF60C5F81080284600F08EFBA5
:101370003320FFF73DFD0546280001D0BDE8FC877E
:101380004FF4001A6F46DFF8C48040F22A6908E083
:10139000504600F029FB20B100F072FB47F8240012
:1013A000641CD8F8000010EA090FF1D0082000F002
:1013B0001BFB20B1082000F0D5FA0420DEE7022054
:1013C00000F012FB20B1022000F0CCFA0220D5E799
:1013D000202000F009FB20B1202000F0C3FA0620F5
:1013E000CCE74FF40074204600F0FEFA20B120460E
:1013F00000F0B8FA0720C1E740F2FF5000F0B2FA5F
:1014000000980099000601F47F4140EA012000990C
:1014100001F47F0140EA1120009940EA11607060F8
:1014200001980199000601F47F4140EA01200199E9
:1014300001F47F0140EA1120019940EA1160306017
:1014400028469BE76821002020000020342C014022
:101450002DE9F0470F46002A70D00C2A6ED8066896
:1014600044688568C168D0F81090D0F814A0BBB368
:1014700001EB0208B8F1180F19D3A8F11808012CD4
:1014800016D0032C14D0052C12D0072C10D0082C09
:101490000ED00A2C0CD0042C11D0062C0FD0092C05
:1014A0000DD00B2C0BD0022C10D00C2C1CD066E0D5
:1014B0001F2D01D26D1C62E00125641C5FE01E2D12
:1014C00001D26D1C5BE00125641C58E01D2D08D085
:1014D0001C2D03D1F0B200F0B9F810B16D1C4EE034
:1014E0000AE0012503244AE01F2D01D26D1C46E0CD
:1014F00001250124761C42E0914202D3A1EB0208AF
:101500003DE0A1EB020808F11808022C17D0042CCA
:1015100015D0062C13D0082C11D0092C0FD00B2C71
:101520000DD0052C12D0072C10D00A2C0ED00C2C6C
:101530000CD0032C11D0012C1AD020E028E0012D72
:1015400001D96D1E1BE01F25641E18E0012D01D975
:101550006D1E14E01E25641E11E0012D03D1F0B2B2
:1015600000F074F808B16D1E09E01C25022406E0A5
:10157000012D01D96D1E02E01F250C24761E3E6050
:101580007C60BD60C7F80C80C7F81090C7F814A045
:10159000BDE8F0872DE9F041002201274FF0030C50
:1015A00007FA02F50B682B40AB422CD106685300BA
:1015B0000CFA03F4A64306600E79D0F800809E4032
:1015C00046EA080606600E79012E01D0022E12D1DD
:1015D0008668A64386604E79D0F808809E4046EA29
:1015E000080686604668AE43466045688E79964038
:1015F000B6B235434560C568A543C560CC799C400B
:10160000C3681C43C460521C102AC9D3BDE8F081D2
:1016100010B54B07DB0E9A40C90800EB8100016A48
:101620000F249C40A1430162016A1143016210BD75
:101630004183704701A001F059FDFEE768617264C3
:101640006661756C742121210A00000000F5FA60C2
:10165000810701D0002070474FF4C871B0FBF1F250
:1016600001FB120131B16421B0FBF1F201FB120068
:101670000028F0D0012070472DE9FC41012188208D
:1016800000F076F84FF48065009501218DF8041084
:1016900000208DF806008DF807108DF80500114F19
:1016A00069463846FFF776FF6C0000946946384675
:1016B000FFF770FF6600009669463846FFF76AFF3D
:1016C0000094094F69463846FFF764FF0549183111
:1016D0000D800C800E8021463846FFF7A9FFBDE83B
:1016E000FC810000001C0240000C0240FEE7704735
:1016F00030B50F23C27801250178002A1FD0154A82
:10170000126802F4E062C2F5E062C2F30722C2F19D
:101710000404D3404278A24084781C401443220140
:1017200001F1E02181F80024007800F01F018D40D4
:101730004009800000F1E020C0F8005130BD01F008
:101740001F0085404809800000F1E020C0F880516A
:1017500030BD00000CED00E002490843024908607A
:10176000704700000000FA050CED00E07047000033
:10177000054A002903D011680143116070471168C0
:10178000814311607047000030380240054A00294B
:1017900003D01168014311607047116881431160E3
:1017A0007047000040380240054A002903D0116804
:1017B0000143116070471168814311607047000058
:1017C00044380240054A002903D0116801431160E2
:1017D000704711688143116070470000243802404F
:1017E00070B5244B196801F00C01234C00291ED060
:1017F000224E04291DD008291DD00460196801F06B
:10180000F00109091E4A545C0168E14041601C680E
:1018100004F4E054A40A145D21FA04F484601B6803
:1018200003F460435B0BD25CD140C16070BD0460C7
:10183000E4E70660E2E70F4A121F1168C1F3805522
:10184000116801F03F0135B1B6FBF1F11468C4F342
:101850008814614305E0B4FBF1F11468C4F3881403
:1018600061431268C2F30142521C5200B1FBF2F113
:101870000160C3E7083802400024F40040787D018D
:10188000000000202DE9FC47064600240094019446
:10189000002000F0C5F8800102D50E20BDE8FC87CD
:1018A0002E4D6946288980B2FFF716FD0028F5D134
:1018B00037202B4F4FF0060A4FF040094FF4806855
:1018C000012E22D00199C90345D52989090439601F
:1018D0007860C7F80890FC60C7F81080384600F0C0
:1018E000D5F83720FFF784FA0028D7D13C60C7F835
:1018F00004A0C7F80890FC60C7F81080384600F0D4
:10190000C5F80620FFF774FAC8E70199490320D506
:101910002989090439607860C7F80890FC60C7F825
:1019200010800F4800F0B2F83720FFF761FA002866
:10193000B4D102203860C7F804A0C7F80890FC6052
:10194000C7F81080064800F0A1F80620FFF750FA0B
:10195000A4E72520A2E72520A0E700002000002022
:10196000682100200149086070470000382C0140C0
:101970000149086070470000382C014001490860A7
:1019800070470000A08025420149086070470000B0
:101990008C85254210B50A4A01681160121D416804
:1019A0001160141D216821F0F701D0E902231A43C8
:1019B000D0E9043003431A430A43226010BD0000FB
:1019C000242C014010B50121CC022046FFF7FAFE7D
:1019D0002046BDE810400021FFF7F4BE0148006832
:1019E000C0B27047102C014001460020024A126824
:1019F0000A4200D001207047342C014001460020EB
:101A0000024A12680A4200D001207047342C01407B
:101A10000248006800F0030070470000002C0140FD
:101A200008B50349084400900098006808BD00000C
:101A3000142C014000F0ACBC054A002903D0116809
:101A400001431160704711688143116070470000C5
:101A50003C2C014030B5094B196847F6FF629143B1
:101A6000027D8468C568224344682C43224304688D
:101A70000069224302430A431A6030BD042C01402E
:101A80000148006870470000802C014010B5084AEA
:101A900001681160141D21686FF30A01D0E9012368
:101AA0001A43D0E9033003431A430A43226010BDAE
:101AB000082C01400149086070470000002C0140DB
:101AC00008B5012000909DF8000008BD2DE9F04107
:101AD000014600241C484068032805D038B101287D
:101AE00005D0022803D02DE02720BDE8F081B1F514
:101AF000805F0CD04FF400670026144DB94212D11C
:101B00000120FFF7BFFE0446200002D01AE0272084
:101B1000EBE72E752E606E60AE60EF602E610B48B5
:101B2000FFF798FF0EE00020FFF7ACFE0446200010
:101B300008D12E752E606E60AE60EE602E61034897
:101B4000FFF788FF2046D0E720000020502100202A
:101B50002DE9F04397494F6880F856700989A0F83D
:101B60005410DFF854C2DCF800100A0E9309037019
:101B7000C2F38303437002F0030282700A0CC27046
:101B80000A0A02714171DCF80420110E0901C180BA
:101B9000C2F30741C38843EA1113C38001F00F0168
:101BA0000172C2F30721CB094372C1F38013837220
:101BB000C1F34013C372C1F30013037300234373D3
:101BC00064460126D4F80880002F4FEA1864C8F351
:101BD0000745C8F3072904D0012F02D0022F3AD0BD
:101BE00051E08907090D0161D1B2026942EA810120
:101BF0000161016941EA94110161C4F3C2010175F7
:101C000004F00701417569098175C5F38201C17549
:101C1000A907490F01764946027E42EAD1120276AF
:101C20000269521C047EA41C06FA04F9A2FB0947AF
:101C300003FB09774FEAE97502FB0575027A06FA9C
:101C400002F70765A4FB072905FB079504FB03546E
:101C5000C0E9122417E09106890A0161016941EA8D
:101C60000421016101692943016149460269521C4D
:101C700043F10004E40444EA5234D204C0E91224DB
:101C80004FF4007202651C30C1F3801200F8032C7F
:101C90008906490E00F8021C08F0FF0110F8022C1A
:101CA00042EAD11200F8022C01F07F0100F8011C79
:101CB000DCF80C20110ECC090470C1F341144470FF
:101CC000C1F3820484708907090FC170C2F3074110
:101CD000C47844EA9114C470C1F340140471437190
:101CE00001F001018171C2F30721CC09C471C1F374
:101CF00080140472C1F340144472C1F3001484725E
:101D0000C1F38104C47201F003010173D1B2490827
:101D100041738673284A103211680C0E04740C0C3F
:101D200024024482C1F30724458A254345820906DB
:101D3000416151680C0E456945EA04444461C1F3B0
:101D40000744456945EA04244461C1F30724456911
:101D500025434561017691680C0E44760C0C2406EF
:101D6000C461C1F30724C56945EA0444C461C9B22A
:101D7000C46944EA0121C161D1680A0EC4691443EF
:101D8000C461C1F3074290F8204044EA121480F87D
:101D900020401207120D4284C1F30722448C1443E1
:101DA0004484C9B2490880F8241080F82560184698
:101DB000BDE8F08320000020C820002008B50020E6
:101DC0000090FFF77DFE012801D0FF2008BD684686
:101DD00000F0AAFB08B1FF2008BD0098C0F3432023
:101DE00008BD10B5FFF7EAFF042803D0FF2803D091
:101DF000012010BD002010BD022010BD38B5002408
:101E0000009400F09DF9FFF7DDFD00F0EBF9009084
:101E10009DF8000010B19DF8000038BD00F02EF8CC
:101E200000909DF8000010B19DF8000038BD1248E8
:101E30000475046044608460C4600461FFF70AFEB6
:101E40000D485838FFF784FE00909DF8000040B917
:101E5000094800215838B0F85400000400F04EFB47
:101E600000909DF8000020B94FF40060FFF72EFEAF
:101E700000909DF8000038BD502100202DE9F84F5A
:101E8000002401200090FFF7C3FDE0B1DFF8FC80E3
:101E900000263F4DD8F804004FF0C0094FF480678A
:101EA00004282AD02E6002206860C5F80890EE60F1
:101EB0002F612846FFF7EAFDFFF718F804462000D7
:101EC00003D0BDE8F88F2520FBE70020FFF7A8FD31
:101ED000DFF8BCA0AAF1900ACAF800000420FFF7BE
:101EE0009FFDCAF804000820FFF79AFDCAF8080011
:101EF0000C20FFF795FDCAF80C00D8F8040028B1B3
:101F0000012803D0062801D0022811D12E60032019
:101F100068604020A860EE602F611D48FFF7B6FDA5
:101F200069460320FFF71EF80446200000D0C8E7EA
:101F3000D8F80400042826D0BDF80000C8F808002E
:101F40000004286009206860C5F80890EE602F61E1
:101F50000F48FFF79BFDFEF7C9FF0446200000D0A5
:101F6000AFE70020FFF75CFD094DA03D286004208D
:101F7000FFF756FD68600820FFF752FDA8600C20AF
:101F8000FFF74EFDE86020469BE7000020000020A0
:101F90006821002030B58FB004461E4D4FF0FA5135
:101FA0002846FFF743F800212846FFF755F8284652
:101FB000FFF75EF84FF00060009017480190029420
:101FC0000020039001210491059089020691890067
:101FD00007918900089109904FF440300A9004203D
:101FE0000B9003200C9048020D9080100E906946D3
:101FF0002846FFF7F9F8012210212846FFF7DAF802
:1020000020212846FFF7CAF801212846FFF724F8C7
:102010000FB030BD58640240802C014030B58FB005
:1020200004461F4D4FF0FA512846FEF7FFFF0021EE
:102030002846FFF711F82846FFF71AF84FF000601E
:1020400000901848019002944020039001200490D1
:1020500000200590291506918900079189000891B3
:1020600009904FF440300A9004200B9003200C900C
:1020700048020D9080100E9069462846FFF7B4F88C
:10208000012210212846FFF795F820212846FFF766
:1020900085F801212846FEF7DFFF0FB030BD0000B4
:1020A00058640240802C01407CB50020FFF766FC9C
:1020B0000020FFF7FFFCFFF785FC00214FF40060D4
:1020C000FFF772FB1C4C002208212046FFF7A0FA04
:1020D000002209212046FFF79BFA00220A21204610
:1020E000FFF796FA00220B212046FFF791FA002213
:1020F0000C212046FFF78CFA104D002202212846C1
:10210000FFF786FA4FF47061009100218DF80410FA
:102110008DF8071069462046FFF73CFA042100912C
:1021200069462846FFF736FAA11400916946204611
:10213000FFF730FA7CBD000000080240000C0240AE
:102140007CB501210C20FFF713FB244D0C22082144
:102150002846FFF75DFA0C2209212846FFF758FAB6
:102160000C220A212846FFF753FA0C220B2128469D
:10217000FFF74EFA0C2211462846FFF749FA184E8F
:102180000C2202213046FFF743FA4FF470600090B2
:1021900002218DF805108DF8041000248DF80640FA
:1021A00001218DF8071069462846FFF7F3F904214D
:1021B000009169463046FFF7EDF9A81400908DF8BC
:1021C000074069462846FFF7E5F90121C802FFF7F5
:1021D000EBFA01218805FFF7CBFA7CBD000802402D
:1021E000000C02402DE9F84F00270097BB46002461
:1021F000A24600255948762101750760476087602F
:10220000C7600761FFF726FC0320FFF753FC01209E
:10221000FFF7B4FB514E183637607760B760F76050
:102220004FF48069C6F810903046FFF72FFCFEF798
:10223000C9FD00909DF8000018B19DF80000BDE8B0
:10224000F88F4FF4D5703060082070604FF0400870
:10225000C6F80880F760C6F8109040481830FFF7BD
:1022600015FCFEF7BFFE00909DF8000018B3376024
:1022700037207060C6F80880F760C6F810903748BD
:102280001830FFF703FC3720FEF7B2FD00903760EF
:1022900037207060C6F80880F760C6F810902F48A5
:1022A0001830FFF7F3FB3720FEF7A2FD00909DF8F2
:1022B000000090B34FE02A48012141608D07E6E716
:1022C000376037207060C6F80880F760C6F8109055
:1022D00022481830FFF7DAFB3720FEF789FD00901F
:1022E0009DF8000010B19DF80000A8E71D482843A4
:1022F000306029207060C6F80880F760C6F810903A
:1023000016481830FFF7C2FBFEF712FE00909DF84A
:10231000000018B19DF8000091E706E00020FFF7EB
:102320007FFB83464FEADB7A641CBAF1000F03D1CE
:102330004FF6FF708442C3D34FF6FF70844204D33C
:102340001B2000909DF8000079E71BF0804F02D021
:102350000348022141609DF8000070E750210020F1
:1023600020000020000010800748006810F0C05FC7
:1023700008D006490120486103484FF0C251583047
:10238000FEF754BE704700000064024020000020A9
:1023900070B54FF480752846FFF730FB214C38B1FB
:1023A000002020702846FFF7E3FA0120206132E088
:1023B0000220FFF723FB28B10220FFF7D9FA022001
:1023C000207028E00820FFF719FB28B10820FFF74C
:1023D000CFFA042020701EE02020FFF70FFB28B169
:1023E0002020FFF7C5FA0620207014E01020FFF728
:1023F00005FB28B11020FFF7BBFA052020700AE08A
:102400004FF400752846FFF7F9FA20B12846FFF788
:10241000AFFA0720207000214CF23A30FFF70CFB96
:10242000207870BD200000202DE9F05F8346DDE9B3
:102430000A6714461D46DFF8B8A04FF000088AF876
:102440000080CAF810804FF00109CAF80C902948A2
:10245000C0F80080012140F22A30FFF7EDFA07FBB7
:1024600006F15846FFF796FD0120FFF78DFADAF8DE
:102470000400022803D10602640A44EAC5541E4D32
:102480002E60102068604FF0400AC5F808A0C5F81B
:102490000C804FF4806BC5F810B02846FFF7F6FAB1
:1024A0001020FEF7A5FC002820D1411E05F11400E4
:1024B000016077434760902181600221C160C0F8CC
:1024C0001080C0F81490FFF765FA2C601220686045
:1024D000C5F808A0C5F80C80C5F810B02846FFF76D
:1024E000D5FABDE8F05F1220FEF782BCBDE8F09F90
:1024F000200000202C2C01406821002010B5094A42
:10250000106007205060402090600020D0604FF4A1
:10251000806010611046FFF7B9FABDE8104007204F
:10252000FEF766BC6821002070B50546002D16D068
:102530000F48008901040F4801600D2141604021CE
:1025400081600021C1604FF480610161FFF79EFA54
:102550000D20FEF74DFC04461CB1204670BD262020
:1025600070BD0020FFF75CFA2860204670BD0000B7
:10257000200000206821002010B5084800210160DB
:102580000C22426040228260C16011010161FFF7AC
:102590007DFABDE810400C20FEF72ABC682100201F
:1025A0002DE9F04100256C1E2146154E00E0491E24
:1025B000706928B9306918B9307808B90029F6D19E
:1025C000002777610F4800E0641E0168890401D587
:1025D000002CF9D1F068012803D1FFF7CDFF0546A3
:1025E000F7602C4300D1042540F2FF50FFF7BAF901
:1025F000307810B13078BDE8F0812846FBE7000064
:1026000020000020342C01402DE9F04100256C1EF3
:102610002146154E00E0491E706928B9306918B985
:10262000307808B90029F6D1002777610F4800E01B
:10263000641E0168C90401D5002CF9D1F068012895
:1026400003D1FFF799FF0546F7602C4300D104251D
:1026500040F2FF50FFF786F9307810B13078BDE8CE
:10266000F0812846FBE7000020000020342C0140C8
:102670002DE9F05F8246DDE90A6714461D46DFF862
:1026800004914FF0000889F80080C9F810800120FB
:10269000C9F80C003C48C0F80080012140F21A3013
:1026A000FFF7CAF907FB06F15046FFF7B7FC012018
:1026B000FFF76AF9D9F80400022803D10602640A78
:1026C00044EAC554314D2E60102068604FF0400B35
:1026D000C5F808B0C5F80C804FF4806AC5F810A0A2
:1026E0002846FFF7D3F91020FEF782FB002847D1D8
:1026F000B9F808000004286037206860C5F808B001
:10270000C5F80C80C5F810A02846FFF7BFF93720A0
:10271000FEF76EFB002833D12F6017206860C5F8E4
:1027200008B0C5F80C80C5F810A02846FFF7AEF930
:102730001720FEF75DFB002822D12C60192068606D
:10274000C5F808B0C5F80C80C5F810A02846FFF7FA
:102750009DF91920FEF74CFB002811D105F1140258
:10276000401E10607743576090209060C2F80C8044
:10277000C2F81080012050611046FFF70BF9404667
:10278000BDE8F09F200000202C2C01406821002093
:10279000002904D0018841F0400101807047018880
:1027A00021F04001018070472DE9F0410446884640
:1027B00015460F4F4FF480767E83032000F0EEF82D
:1027C000C8F3074000F0EAF8C8F3072000F0E6F885
:1027D00008F0FF0000F0E2F804E0FF2000F0DEF86F
:1027E00004F8010B6D1E681CF7D13E83BDE8F08133
:1027F000002002402DE9F04706460D46E8B241426E
:10280000CFB2140A02F0FF094FF48078002812D0EA
:10281000E8B24042C0B205EB000A34B3D01B80B22C
:10282000040A00F0FF093A462946304600F04CF809
:1028300055463E4439E074B929463046BDE8F04774
:1028400000F042B842462946304600F03DF805F512
:10285000807506F58076641EE4B2F3D24A462946B6
:102860003046BDE8F04700F02FB8B9450ED9A9EBC6
:102870000700C4B23A462946304600F025F85146D2
:10288000F0192246BDE8F04700F01EB82946304650
:10289000BDE8F04700F018B842462946304600F03F
:1028A00013F805F5807506F58076641EE4B2F3D260
:1028B000B9F1000F06D04A4629463046BDE8F04738
:1028C00000F002B8BDE8F0872DE9F04105468846E2
:1028D000144600F0BBF8114F4FF480767E8302203F
:1028E00000F05CF8C8F3074000F058F8C8F3072080
:1028F00000F054F808F0FF0000F050F8B44205D999
:10290000344603E0287800F049F86D1C641EA4B238
:10291000F8D23E83BDE8F04100F078B800200240D4
:102920002DE9F0410C4F4FF480747C839F2000F020
:1029300035F8FF2000F032F80546FF2000F02EF8B1
:102940000646FF2000F02AF801463C83280440EAAE
:1029500006200843BDE8F0810020024070B504461F
:1029600000F074F800F052F80B4E4FF48075758348
:10297000202000F013F8C4F3074000F00FF8C4F370
:10298000072000F00BF8E0B200F008F83583BDE84E
:10299000704000F03BB80000002002402DE9F041FB
:1029A0000746184C4FF480556560174E09E0606883
:1029B000411E616005D2002000F088F8C0B2BDE879
:1029C000F0810221304600F059F80028EFD0394656
:1029D000304600F05CF8656008E061684A1E62609D
:1029E00004D2012000F072F8C0B2E8E701213046BD
:1029F00000F044F80028F0D0304600F046F8C0B2AD
:102A0000DDE7000018000020003C004070B50D4ECE
:102A10004FF4807575830520FFF7C0FF0A4C28012D
:102A20006060FF20FFF7BAFF61684A1E626004D24F
:102A3000BDE87040042000F049B8C007F1D13583EB
:102A400070BD0000002002401800002070B5044C4A
:102A50004FF4807565830620FFF7A0FF258370BDC6
:102A60000020024070B5044C4FF480756583AB20A4
:102A7000FFF794FF258370BD00200240024600202E
:102A800012890A4200D001207047808970478181F5
:102A9000704730B5028802F441530A884C88CD88CB
:102AA00022438C882C4322430C8922434C892243A5
:102AB0008C892243CC8922431A430280828B22F4E0
:102AC00000628283098A018230BD000010B5014690
:102AD00002A000F00BFB002010BD00003C3C2D4686
:102AE0004C4153482D4552524F522D3E3E2053509B
:102AF0004920B5C8B4FDB3ACCAB1216572726F721A
:102B0000436F6465203D2025640A00007047000083
:102B10001CB50021019100912E4A106840F48030CC
:102B200010604FF4A043106800F40030009001984A
:102B3000401C0190009810B901989842F3D1106898
:102B4000800302D50120009000E000910098012848
:102B50003FD120484030016841F0805101601E495A
:102B6000086840F4404008601A4808300368036071
:102B7000036843F400430360036843F4A053036015
:102B8000041F164B2360136843F0807313601368AF
:102B90009B01FCD50A6842F480320A604A68D2037D
:102BA000FCD50A6842F400320A604A689203FCD5F8
:102BB0000B4A40F205711160016821F003010160C8
:102BC000016841F0020101600168C1F3810102293D
:102BD000FAD11CBD0038024000700040195A40076D
:102BE000003C02407047000010B50F48016841F0FA
:102BF000010101600C4A00210832116002680B4B90
:102C00001A400260031D0A4A1A60026822F48022F8
:102C1000026005480C300160FFF77AFF05494FF06C
:102C20000060086010BD000000380240FFFFF6FEA3
:102C30001030002408ED00E02DE9F04387B00121B9
:102C40004FF48170FEF794FD0121C803FEF79EFD4D
:102C5000344D062203212846FEF7DAFC0622042121
:102C60002846FEF7D5FC062205212846FEF7D0FCB3
:102C70004FF00808CDF800804FF002098DF804905D
:102C800000248DF8064003208DF805008DF80740DC
:102C900069462846FEF77EFC1020009069462846CB
:102CA000FEF778FC2020009069462846FEF772FC6B
:102CB000AF15009701258DF804501B4E694630462C
:102CC000FEF768FC3783ADF80840381DADF80A0000
:102CD000ADF80C40ADF80E90ADF810506802ADF8AC
:102CE0001200ADF81480ADF816400720ADF81800BA
:102CF0000E4C02A92046FFF7CCFE00212046FFF72C
:102D000047FD01212046FFF743FD4FF4FA70401EB6
:102D10000004000CFBD1FFF7A5FE00F02DF807B072
:102D2000BDE8F0830004024000200240003C004067
:102D300004280DD2DFE800F00C02060A4FF42060F0
:102D4000086005E04FF48050088001E00120086031
:102D50000020704710B5074B1B78DB0701D003201C
:102D600010BD01F5C06112030903FFF71DFD00202E
:102D700010BD00001800002010B5FFF7D1FD074A74
:102D80000749904204D1087820F00100087010BD76
:102D9000087840F00100087010BD00001840EF00F6
:102DA0001800002070B5054601F5C0610C032046EF
:102DB000FFF7D4FD4FF4805221462846FFF71AFD55
:102DC000002070BD0120704738B54FF4C060FEF799
:102DD000C3FC31208DF8000001248DF80140002053
:102DE0008DF802008DF803406846FEF781FC3B2019
:102DF0008DF800008DF801406846FEF779FCFFF77A
:102E000053F9FFF79DF9FEF7F9FF0C4960B14878D7
:102E100040F001004870FFF7D5FF50B1487820F02E
:102E200004004870487838BD487820F001004870A8
:102E3000F1E7487840F004004870F3E720000020F4
:102E400010B50C46002814D00B4901280A6D0AD091
:102E5000022802D003280CD103E04FF40070208038
:102E600007E0226005E0D1E912010023FDF7BAF97D
:102E70002060002010BD0000F82000202DE9F04166
:102E8000ADF5007D06460C4615461D484078C00746
:102E900004D003200DF5007DBDE8F081B0074FF4AC
:102EA000007815D000270EE02146641C01226846F8
:102EB000FFF7E4FF07464FB9424669463046FDF743
:102EC000D0F906F500766D1E681CEDD13846E1E7B5
:102ED000CDE90085620200233046FFF7A5FA08B16C
:102EE0000120D7E7FFF75CFB0446FEF77AFF0128D5
:102EF000FBD0022800D00CB10120CBE70020C9E7AD
:102F00002000002000B5FEF7DBFD012801D00120E4
:102F100000BDFFF757FF064928B1487820F00400AC
:102F20004870487800BD487840F004004870F8E7E1
:102F300020000020F0B5ADF5017D06460C46154693
:102F4000FFF740FF38B1FEF7BBFD012805D0032095
:102F50000DF5017DF0BD0220FAE7B0074FF40077D0
:102F600014D000200EE03A46314601A8FDF779F969
:102F70002146641C012201A8FFF7DCFF0028E7D1ED
:102F800006F500766D1E691CEDD1E1E7CDE900750F
:102F9000620200233046FFF76BFB08B10120D7E740
:102FA000FFF732FB0446FEF71CFF0128FBD0022886
:102FB00000D00CB10120CBE70020C9E7002904D0E4
:102FC000818941F4005181817047818921F4005148
:102FD000818170470246002012880A4200D00120F9
:102FE000704700007FB504460D46208A20F440510A
:102FF000E88808432082A08941F20C618843A988AF
:103000002A8911436A8902431143A181A08A20F4CD
:103010004071A8890843A0826846FEF7E1FB1E487C
:10302000844202D01D48844201D1039800E00298F6
:10303000A189090408D500EBC00101EB0010296843
:103040004900B0FBF1F007E000EBC00101EB00101C
:1030500029688900B0FBF1F06422B0FBF2F10901AC
:103060000B096FF018056B4300EB8300A3891D0467
:103070004FF0320307D503EBC000B0FBF2F000F0D5
:103080000700084306E003EB0010B0FBF2F000F08D
:103090000F00084320817FBD001001400014014053
:1030A000C1F3080181807047FEE700007CB5012173
:1030B0004020FEF75DFB4FF40074009401208DF872
:1030C000040000208DF8060002228DF807208DF8FC
:1030D0000500054D69462846FEF75CFA214628465C
:1030E000FEF7A6FA7CBD0000001802400FB4054BA5
:1030F00010B503A9044A029800F038F910BC5DF835
:1031000014FB0000A54C0008640000207CB5491E9B
:103110001C461546CDE90001044B6A462146284667
:1031200000F024F9009A002111707CBD9B3A000840
:10313000004870477000002002E008C8121F08C154
:10314000002AFAD170477047002001E001C1121F28
:10315000002AFBD1704700002DE9FF5FDDE9022066
:10316000010DDDF838B0024318D044F61050A1F23A
:10317000FF3141430D140F98012820D0A5EB0B001F
:10318000401C5FEA000A4FF00004474EDFF81C9134
:10319000A046504616D5CAF1000728E00F98012432
:1031A00043A2012808D0002100980F9BC0E900210C
:1031B000C0E90243BDE8FF9F6FEA0B01F4E7CBF1E2
:1031C0000000DEE7074612E0F80707D02246334644
:1031D00040464946FDF766F9804689462246334611
:1031E00010461946FDF75EF904460E467F10002F83
:1031F000EAD1DDE90201BAF1000F42464B4602DA9C
:10320000FDF750F901E0FDF7BFF904460E46002234
:10321000284BFDF729FA03D84FF0FF30014607E0AD
:103220000022254B20463146FDF795F8FDF775FB4A
:10323000102409E0002C0ADB0A220023FCF7D2FF4D
:10324000019B30321A55641E50EA0102F2D1641C0F
:10325000019AC4F1110314440F9A012A03D00122E8
:1032600008430DD10AE0084304D000204FF0110BB1
:103270000F9080E7A3EB0B056D1E0DE05B4504DDB1
:103280004FF0000205F1010504E003DA4FF00002FF
:10329000A5F10105002AECD000980F99C0E9023190
:1032A000C0E9004586E70000000024400000F03F30
:1032B000300000000000F0430000E03F30380A28F2
:1032C00001D201207047002070470000FEB50024A5
:1032D00002F114052E1F331F06290BD0082914D024
:1032E000092912D00A2910D010A002F0C3F8CCB1DD
:1032F0000020FEBDCDE9006515A202F049FD0328BE
:1033000001D00024F3E70124F1E71832CDE900658C
:10331000029212A202F03CFD042801D00024E6E74C
:103320000124E4E74FF0FF30FEBD000050617273EE
:1033300065206F662074696D65206572726F7220FA
:1033400028666F726D6174206572726F7229210038
:10335000253264253264253264000000253264255C
:1033600032642532642E2564000000002DE9FF4FF1
:1033700095B09B468946064600250FE2252877D161
:1033800000242746F84A0121059400E0044316F87A
:10339000013F203B01FA03F01042F7D130782A2890
:1033A00011D06FF02F033078A0F13002092A16D81F
:1033B000059A44F0020402EB820203EB420210443D
:1033C000761C0590EFE759F8042B0592002A03DAE2
:1033D000504244F40054059044F00204761C3078C6
:1033E0002E2816D116F8010F44F004042A280DD017
:1033F0006FF02F023078A0F13003092B09D807EBCA
:10340000870302EB4303C718761CF3E759F8047BE4
:10341000761C30786C280FD006DC4C2817D0682832
:103420000DD06A2814D104E0742810D07A280FD166
:103430000DE044F400140AE044F4801401E044F484
:1034400040147278824202D104F58014761C761CF6
:10345000307866280BD013DC582877D009DC002898
:1034600075D04528F6D04628F4D047281AD19DE1DA
:1034700018E0632835D0642879D0652812D195E109
:10348000702873D008DC6728F1D069286FD06E28C7
:103490000DD06F2806D1B5E073282CD0752875D0D3
:1034A000782874D05A46179990476D1C75E1C4F37B
:1034B0000250022809D003280DD0D9F800100428A2
:1034C0000DD00D6009F1040967E1D9F80010EA1781
:1034D000C1E90052F6E7D9F800100D80F2E70D704F
:1034E000F0E719F8041B8DF8001000208DF801009A
:1034F000EA46012003E059F804AB4FF0FF306107C2
:103500004FF0000102D40DE008F101018846B942F4
:103510000FDA8045F8DB1AF808100029F4D108E02A
:1035200008F1010188468142FADB1AF808100029E7
:10353000F6D105985B46A0EB080721463846179A56
:1035400000F094FA284400EB080507E04DE029E17B
:103550000DE01AF8010B5A4617999047B8F1010887
:10356000F7D25B4621463846179A13E142E00A2219
:103570000092C4F302524FF0000A022A08D059F810
:1035800004CB032A4FEAEC710AD00DE029E02AE0CF
:1035900009F1070121F00702F2E802C1914609E0B2
:1035A0000FFA8CFC4FEAEC71042A03D14FFA8CFC21
:1035B0004FEAEC71002907DA0A460021DCF1000C21
:1035C00061EB02012D2202E0220504D52B228DF8A9
:1035D0000420012203E0E20701D02022F7E7904611
:1035E00059E00A2102E010220DE010214FF0000AFC
:1035F00000910BE010224FF0000A44F00404082769
:10360000009203E008224FF0000A0092C4F3025235
:10361000022A05D059F804CB0021032A08D009E07A
:1036200009F1070121F00702F2E802C1914605E025
:103630001FFA8CFC042A01D10CF0FF0C4FF000089B
:10364000220728D5702806D0009B83F0100353EA88
:103650000A0305D00EE040228DF80420012208E084
:103660005CEA010206D030228DF804208DF80500B6
:1036700002229046009B83F0080353EA0A030AD112
:103680005CEA010201D1620705D530228DF80420E1
:103690004FF001087F1E582804D034A003900EA8D4
:1036A00002900DE036A0F9E753466046009AFCF719
:1036B00099FD84460398825C0298401E0290027035
:1036C0005CEA0100F0D1029806A9081A00F1200A6C
:1036D000600702D524F4803400E00127574502DD5D
:1036E000A7EB0A0000E0002000EB0A01009005981B
:1036F0004144401A0590E00306D45B462146179AE0
:10370000059800F0B3F90544002706E001A85A46E1
:10371000C05D179990476D1C7F1C4745F6DBE003A1
:103720000CD55B462146179A059800F09FF9054491
:1037300004E030205A46179990476D1C0099481EA6
:1037400000900029F5DC08E0029802995A460078BA
:10375000491C0291179990476D1CBAF10001AAF11A
:10376000010AF1DC65E10000092801003031323343
:1037700034353637383961626364656600000000AD
:103780003031323334353637383941424344454697
:103790000000000000F058F90544761C307800283D
:1037A0007FF4ECAD19B02846BDE8F08F620700D475
:1037B000062709F1070222F0070CFCE80223E14684
:1037C00003F000485FEA080C02D00FF2702C0DE005
:1037D0005FEA045C02D50FF2682C07E05FEAC47C64
:1037E00002D00FF2602C01E0AFF2700C4FF0FF3806
:1037F00023F00043CDF850C065280CD006DC4528E6
:1038000009D046281DD047283DD13DE0662818D074
:1038100067287ED138E00021112F01DB112000E064
:10382000781CCDE9000106A90EA8FFF795FCDDE99B
:103830000F010E9A03910021009207F1010A0491F1
:103840004DE04FF000400097CDE9011006A90EA809
:10385000FFF782FCDDE90F0203920E9B1199002213
:10386000DDF80CA00093049211B9791C00EB010A59
:10387000B7EB0A0004D4C0F1FF3007F1010A04904D
:10388000AAEB0700019044E0012F00DA0127002194
:10389000112F01DD112000E03846CDE9000106A915
:1038A0000EA8FFF759FCDDE90F010E9A03910021E4
:1038B00004910092BA4621070CD40399514500DACD
:1038C0008A46BAF1010F05DD009AAAF10101515CA7
:1038D000302908D0B84202DA10F1040F06DA0121CB
:1038E000CDE9011015E0AAF10101E9E7002805DCA6
:1038F000049901440491AAEB000102E0411C5145E6
:1039000000DD8A460499401A401C01904FF00040A7
:103910000290200704D40198504501DBCDF80480C3
:1039200000208DF84F0002980DF14F07B0F1004FC5
:1039300025D02B200E9002984FF0020800280CDAB8
:10394000404202902D200E9007E00A210298FCF7D9
:10395000A3FE3031029007F8011DB8F10001A8F173
:103960000108F2DC02980028EFD1791E0E98087049
:10397000307800F0200040F0450007F8020D12A852
:10398000C01B00F107081498007800B1012000EB7B
:103990000A01019801EBE07105984144401A401E6C
:1039A0000590E00306D45B462146179A059800F07F
:1039B0005DF805441498007818B15A461799904755
:1039C0006D1CE00324D55B462146179A059800F04C
:1039D0004DF805441CE00498002807DBDDE90301ED
:1039E000884203DD0098405C179901E01799302068
:1039F0005A469047049805F10105401C049001982F
:103A0000401E019004D12E205A46179990476D1CF4
:103A1000BAF10001AAF1010ADDDC05E017F8010B9B
:103A20005A46179990476D1CB8F10001A8F101089A
:103A3000F4DC5B462146179A0598ABE62D000000A2
:103A40002B000000200000002DE9F0410446002575
:103A50001E461746880404D405E039462020B047A6
:103A60006D1C641EF9D52846BDE8F0812DE9F041B2
:103A7000044600251E469046C80301D5302700E0C5
:103A80002027880404D505E041463846B0476D1C20
:103A9000641EF9D52846BDE8F0814A68002A06D0A0
:103AA0000A68531C0B6010704868401E48607047DD
:103AB00010B5044600202071401EE062204601F04F
:103AC000A1FA08B1032010BD94F82E0294F82F1229
:103AD00040EA0120A0F52A41553901D0022010BD4D
:103AE00014F8660FE178627840EA0161A078663CDC
:103AF000000440EA022001430B48B0EB012F01D142
:103B0000002010BD14F8821FE278637841EA026158
:103B1000A278120442EA03221143B0EB012F01D133
:103B2000002010BD012010BD0046415400E0401CA3
:103B300002780AB18A42FAD100787047891E426938
:103B4000921E8A4201D800207047826A807801FB69
:103B5000002070472DE9F05F81460F46387820F04D
:103B60004000401E00EB800101EBC004002601254F
:103B7000DFF85CA007F101084FF6FF7B1AF806009A
:103B8000395C10F8080041EA00207DB100F064FEC5
:103B90000546FF2C07D22046641C39F8100000F0BF
:103BA0005BFEA84206D00020BDE8F09F584501D03A
:103BB0000020F9E7761C0D2EE0D33878400605D5B5
:103BC00025B139F8140008B10020EDE70120EBE73A
:103BD000226300082DE9F04106460F46002F08D069
:103BE0003946304601F0DCF8022809D20120BDE850
:103BF000F081F56815B17069A84207D8012505E084
:103C0000411CF4D071698142F1D83D462C46641CB8
:103C10007069A04204D80224022D01D20020E6E7F8
:103C20002146304601F0BCF838B1411CDFD00128F4
:103C3000DDD0AC42EBD10020D9E76FF070422146D5
:103C4000304602F0A7F928B927B122463946304656
:103C500002F0A0F920B101280DD001242046C6E7CA
:103C6000F4603069411CF9D0401E3061707940F039
:103C700001007071F2E74FF0FF34EFE72DE9F35FD9
:103C80008846D8F8005000E06D1C28782F28FBD01B
:103C90005C28F9D00098D0F81C90002426463046C5
:103CA000761C285C202808D32F2806D05C2804D056
:103CB000FF2C09D30620BDE8FC9FA919C8F8001005
:103CC000202817D204261FE0C0B2012100F0AAFD6F
:103CD000074647B1802F08D239465EA0FFF726FF7E
:103CE00018B10620E7E70620E5E72046641C29F81E
:103CF0001070D4E7002607E0601E39F81000202875
:103D000001D02E2802D1641E002CF5D154B1002020
:103D100029F8140000980B222021806901F06AF92B
:103D2000002702E00620C6E77F1C39F8170020288C
:103D3000FAD02E28F8D01FB146F0030600E0641E2A
:103D400024B1601E39F810002E28F8D14FF0000879
:103D5000C2464FF0080B38467F1C39F8105005B3A7
:103D6000202D03D02E2D04D1A74202D046F0030609
:103D7000F1E7DA4501D2A74219D1BBF10B0F0ED002
:103D8000A74201D046F003060BD827464FF0080A99
:103D90004FF00B0B4FEA88604FEA1068DBE746F004
:103DA0000306009880690178E5292ED02FE0802D48
:103DB0000BD30021284600F035FD05461DB12848EB
:103DC000284410F8805C46F0020625B1294625A05B
:103DD000FFF7ACFE18B15F2546F003060EE0A5F133
:103DE0004100192802D848F0020807E0A5F1610057
:103DF000192803D848F00108203DADB20098816928
:103E000050460AF1010A0D54A5E705210170BBF1E6
:103E1000080F03D14FEA88604FEA1068C8F38100A9
:103E2000032803D06FEA0801890701D146F0020692
:103E3000B10709D408F00301012901D146F01006A9
:103E4000012801D146F0080600988069C67200205A
:103E500031E70000222A3A3C3E3F7C7F0000000010
:103E6000A26200082B2C3B3D5B5D000070B505464F
:103E70000E460021284600F08AF988B900242969F5
:103E8000286801F0BFF858B969690978E5290BD0AD
:103E900051B100240121284600F06DF80028EED031
:103EA000042800D1072070BD641CB442F8D0F1E7AB
:103EB0002DE9F04704460021204600F068F900286B
:103EC00057D1FF26B1464FF6FF7AA4F820A021690A
:103ED000206801F097F880465FEA080048D16769DA
:103EE0003D7865B1F87A00F03F00E52D03D0010779
:103EF00008D50F2806D0FF26A4F820A030E04FF008
:103F0000040835E00F2801D0CEB11DE0E06938B3D8
:103F1000690606D597F80D9025F040052E46E188F4
:103F20002184B54208D1797B494505D13946FFF74F
:103F300011FE08B1761E00E0FF26F6B210E038460A
:103F400002F007F9484513D0A169C87AC00704D127
:103F50000B22384601F038F850B1FF26A4F820A013
:103F60000021204600F007F880465FEA0800AED046
:103F70004046BDE8F0872DE9F04104460E46E7884B
:103F80007F1C3804000C0AD0216941B120684289A5
:103F90005209B7FBF2F302FB13721AB166E0042078
:103FA000BDE8F081491C2161E16871B142898378E3
:103FB0005209B7FBF2F25B1E1A4257D100F0F0FE35
:103FC0000546012D06D80220EAE70089B8424DD8FF
:103FD0000420E5E7681C14D020684169A9423FD855
:103FE0008EB1E168FFF7F6FD054628000DD0012DE2
:103FF0000DD0681C0DD0206802F012F958B10120D4
:10400000CEE70120CCE70420CAE70720C8E702205A
:10401000C6E70120C4E7206800214289303000F063
:10402000E9FF29462068FFF789FD2168C86200265C
:104030004FF001080CE080F80480206802F0F0F8EE
:1040400008B10120ACE72068C16A491CC162761C36
:1040500020688178B142EED82168C96A891BC162A3
:10406000E56029462068FFF769FD2061E780206848
:1040700041894909B7FBF1F201FB1271302202EBD1
:1040800041110844606100208AE72DE9FE4304469F
:10409000A769E6690C223946684600F0A2FF9DF840
:1040A0000B00C00718D00020F872E06101252B46F4
:1040B00032466946384600F02FFE2046FFF7F8FEEC
:1040C00010B96D1C642DF2D3642D0BD004280AD1D5
:1040D0009DF80B00F872E6619DF80B0080070ED585
:1040E000002003E00720BDE8FE83401C36F81010D6
:1040F0000029FAD119300D21B0FBF1F600E00126BC
:1041000031462046FFF7B2FE054601271DBB761E4D
:1041100021D0E088811B204600F039F805462800B0
:1041200019D1A06902F015F880462169206800F0D5
:1041300069FF05467DB9F2B243466169E06900F066
:1041400045FD2068077100212046FFF714FF054652
:104150000DB9761EE9D1C5B92169206800F052FF7A
:104160000546280011D120220021606900F042FF9D
:10417000D4E905010B2200F034FFA0696169C07A1F
:1041800000F018000873206807712846ABE770B587
:1041900004460D46E580A368012B03D020684169E1
:1041A000994201D8022070BD1BB90178032900D1C2
:1041B000436A2BB141898078490911FB00F618E068
:1041C0000189A94201D8022070BD406A17E0194652
:1041D000206800F0E5FD0346581C07D0022B03D3EE
:1041E00020684069984203D8022070BD012070BD4C
:1041F000AD1BB542EBD219462068FFF79FFCE36088
:1042000098B121684A895209B5FBF2F21044206145
:1042100048894009B5FBF0F200FB1250302202EB56
:10422000401008446061002070BD022070BD01464E
:104230000120002903D0012903D1FEF7FDBCFEF7C0
:10424000C3BD704730B40C46034611460420002B12
:1042500005D0012B07D1204630BCFEF769BD2046B2
:1042600030BCFEF7EDBD30BC704730B40D46114692
:1042700004461A460420002C05D0012C07D12846FC
:1042800030BCFEF767BD284630BCFEF7F7BD30BC3A
:10429000704701460120002903D0012903D1FEF710
:1042A0006BBDFEF72FBE704730B40D461146044675
:1042B0001A460420002A06D044B1012C04D1284615
:1042C00030BCFEF76FBD042030BC7047284630BCC0
:1042D000FEF730BE704710B50446204600F054FA91
:1042E000002806D1204601F0C6FF002801D1002198
:1042F000216010BD2DE9F04704460D46204601F02F
:10430000BAFF80465FEA080001D0BDE8F087E07997
:104310000028FAD1E068A84203D2A179890700D425
:104320000546A1680027A7604FF00109002D61D064
:1043300020688678428956434FF0020A69B16A1EA6
:10434000491EB2FBF6F2B1FBF6F39A4205D3701E9A
:104350008143A1606D1A61690BE0216941B90021B7
:10436000FFF738FC0146012905D0481C07D0216120
:10437000616159BB3EE084F807A00220C5E784F8DC
:1043800007900120C1E7A079800706D52068FFF7D4
:1043900021FC014629B935461AE0206800F000FDED
:1043A0000146481C09D0012903D920684069884288
:1043B00007D884F807A00220A7E784F80790012017
:1043C000A3E76161A0683044A060AD1BB542DAD8B4
:1043D000A0682844A06020684289B5FBF2F302FB84
:1043E00013523AB1FFF7AAFBF0B121684989B5FB36
:1043F000F1F10F182068A1684289B1FBF2F302FBCA
:10440000131131B3A269BA4223D0A17904F1240572
:10441000490611D5407801232946FFF745FF38B1F9
:1044200084F80790012070E784F807A002206CE769
:10443000A07920F04000A071206801233A4640781E
:104440002946FFF712FF18B184F8079001205CE7B6
:10445000A761D4E90201884204D9E060A07940F064
:104460002000A071404650E717B581B0144602986D
:104470000090684600F018FD002802DA0B2004B016
:1044800010BD0B4B53F82010002201B10A700199A6
:10449000002900D00A7043F8201001D0012C01D06F
:1044A0000020ECE7002202A901A800F0EBF9E6E702
:1044B0003C0000202DE9F747ADF50D7D0646002EA6
:1044C0000FD04FF00008C6F8008002F01F0727F059
:1044D00001028EA984A800F0D5F90546280005D070
:1044E00092E009200DF5107DBDE8F08781A88A9043
:1044F00001A88B9084A88E9900F09EFB0546899CAC
:104500000DB904B9062517F01C0F4DD04DB1042D7F
:1045100003D184A8FFF7B9FD054647F00807899C39
:1045200008E0E07A10F0110F01D0072502E07807CB
:1045300000D50825BDBB380741D500F0B1FCA073FC
:10454000010AE173010C2174000E607484F80B8081
:1045500084F81C8084F81D8084F81E8084F81F80F5
:104560002146849800F0C1FC81460021204601F0DC
:10457000DAFD849901200871B9F1000F1FD08498E9
:10458000D0F82CA04946849801F09AFD05462800F1
:1045900015D18498A9F10109C0F80C90514684986E
:1045A00000F030FD05460AE04DB9E07AC10601D5BC
:1045B000042504E0B90702D5C00700D007253DB99E
:1045C000380701D547F020078498C06AF06134624B
:1045D000D5B9B77186F807802146849800F085FC2C
:1045E0003061207FE17F627F40EA0160A17F0904A2
:1045F00041EA02210843F060C6F80880C6F8188036
:1046000084983060C088B08028466BE72DE9F84F69
:1046100004468846164699460020C9F80000204600
:1046200001F029FE002812D1E07900280FD1A079ED
:10463000C0070BD0D4E90210401A864200D90646C2
:1046400004F124004FF0010A009098E00720BDE833
:10465000F88F2268A0685189B0FBF1F301FB1303C6
:10466000002B6DD1B0FBF1F193785B1E1940CDB2F8
:1046700075B940B11046616900F092FB022804D27E
:104680000220E071E3E72069F8E7411C1CD060617B
:1046900061692068FFF752FAD0B100EB050B206882
:1046A0004189B6FBF1F74FB38178EA198A4200D904
:1046B0004F1B40783B465A464146FFF7D6FD50B166
:1046C00084F807A00120C2E784F807A00120BEE714
:1046D0000220E071BBE7A07940060BD5A069A0EBF2
:1046E0000B00B84206D221684A89009900FB02807B
:1046F00000F077FC206845897D4336E0A2695A4581
:104700001CD0A17949060DD5407801230099FFF707
:10471000CBFD18B184F807A0012098E7A07920F01C
:104720004000A071206801235A4640780099FFF7A5
:104730009CFD18B184F807A0012088E7C4F818B0E0
:104740002068A1684089B1FBF0F200FB1212851AC3
:10475000B54200D93546B1FBF0F200FB1210011949
:1047600024312A46404600F03CFCA844A068284476
:10477000A060D9F800002844C9F80000761B002E7C
:104780007FF467AF002062E770B50446204601F071
:1047900072FD00280ED1A1798A060BD548060ED5E8
:1047A0002068012304F124014078A269FFF77CFD11
:1047B00008B1012070BDA07920F04000A071E1692E
:1047C000206800F01FFC0028F4D1256AE87A40F048
:1047D0002000E872207B2877A089000A6877E068CB
:1047E000000CA877E068000EE8772846216901F000
:1047F0009AFC00F055FBA875010AE975010C2976B1
:10480000000E68760020A874E874A07920F02000DB
:10481000A0712168012008712068BDE8704001F096
:10482000A5BC0000802804D30A4A39B1FF2801D969
:1048300000207047803832F810007047002132F8AD
:104840001130834203D0491C89B28029F7D38031CB
:10485000C8B270475C6300080021084B00E0491CA7
:1048600033F811200AB18242F9D133F81120002A1D
:1048700002D0034830F81100704700005C64000863
:104880003C6600082DE9FF4780460846164600278B
:10489000C8F8007000F008FB0546280003D50B207F
:1048A00004B0BDE8F087C64850F825408CB1C8F880
:1048B0000040207820B16078FFF7EBFCC1070AD0F8
:1048C0002770E8B26070FFF7B2FCC1070AD003207E
:1048D000E6E70C20E4E71EB1400701D50A20DFE738
:1048E0000020DDE71EB1400701D50A20D8E7607837
:1048F00004F10A020221FFF7A5FC30B96089B0F586
:10490000007F02D3B0F5805F01D90120C8E7002500
:1049100029462046FFF7CCF8012826D10021E84699
:1049200004EB011000F5F770027952B1027AC37AF4
:1049300042EA0362837A407A1B0443EA002002437E
:1049400000E0002248F82120491C0429E8D3002671
:1049500058F8265025B129462046FFF7A9F800E06F
:10496000022010B1761C042EF2D3032802D018B115
:104970000D2095E7012093E794F83B0094F83C1054
:10498000B4F80AC040EA0120604501D00D2087E755
:1049900094F8460094F8471040EA012058B914F8FA
:1049A000540FE178627840EA0160A1780904543C30
:1049B00041EA02210843A06194F840A084F803A0D2
:1049C000BAF1010F04D0BAF1020F01D00D2067E750
:1049D0000AFB00FA94F83D20A27012B1511E0A425F
:1049E00001D00D205CE794F8411094F8423041EA80
:1049F000032323814FEA5C16B3FBF6F106FB11316A
:104A000009B10D204CE794F8431094F8448041EA32
:104A1000082179B994F8501094F8538094F8519083
:104A200041EA086194F852804FEA084848EA0928A8
:104A300041EA080194F83E8094F83F9048EA092939
:104A4000B9F1000F08D0B3FBF6F609EB0A08B04441
:104A5000414503D20D2023E70D2021E7A1EB0801FA
:104A6000B1FBF2F141B3012640F6F672914200D358
:104A700002264FF6F672914200D30326891C61612B
:104A8000E56105EB09022262A844C4F82880032EE0
:104A900014D03BB352446262022E25D001F00102D1
:104AA00001EB410102EB5101491E6144B1FBFCF1F4
:104AB00081421BD90D20F3E60D20F1E60BB10D204C
:104AC000EEE694F85C2094F85F3094F85D8042EA5A
:104AD000036294F85E301B0443EA08231A436262BF
:104AE0008900E1E70D20DBE64900DDE74FF0FF300C
:104AF0002061E06080206071032E57D194F860003F
:104B000094F8611040EA012001284FD1691C204629
:104B100000F078FAF0BB677194F82E0294F82F1227
:104B200040EA0120A0F52A4155393FD114F8300F51
:104B3000E178627840EA0160A178303C090441EAFA
:104B4000022108431F49884230D194F8140294F896
:104B5000171294F8152240EA016094F8161209041D
:104B600041EA02210843184988421FD194F81802EB
:104B700094F81B1294F8192240EA016094F81A1272
:104B8000090441EA02210843206194F81C0294F8C8
:104B90001F1200E00AE040EA016094F81E1294F847
:104BA0001D22090441EA02210843E06026700449FD
:104BB000091F0888401C0880E080002070E6000083
:104BC0003C00002052526141727241612DE9F04374
:104BD0004B730F23CB7200230B738B76CB76531E54
:104BE00003EB830404EBC30500231C46114E01F1C3
:104BF000010C4FF6FF77BB4203D02B466D1C30F8FB
:104C0000133016F8048001F8083016F804904FEAC3
:104C1000132809F80C8003B93B46641C0D2CEAD319
:104C2000BB4202D030F8150008B942F040020A70C9
:104C3000BDE8F0832263000873B504460199087843
:104C40002F2801D05C2801D1491C01910025A560C5
:104C500001980078202805D200212046FFF797FA16
:104C600065617CBD01A92046FFF708F80028F8D14E
:104C70002046FFF71DF9A169C97A28B10428F0D1AF
:104C80004907EED405207CBD4907FCD46169C87A88
:104C9000C00601D405207CBD206800F026F9A06084
:104CA000E0E7000070B50446064DE1B22846FEF785
:104CB000F7F980212846FEF78DF90028F9D0204623
:104CC00070BD00000010014010B5002821D0114B2C
:104CD0000022001F196803E0814203D80A46496890
:104CE0000029F9D152B11368841A9C4204D100689A
:104CF00018441060104602E0506000E0186039B1BE
:104D000002680B1A934203D10B681A440260496887
:104D1000416010BD680000207CB5054616461C4663
:104D20000B22284600F05DF9052C11D91B480CE038
:104D3000B61C002322460C4662F35F044908E203D6
:104D400000D544405B1C102BF4D331880029EFD1EF
:104D500007216B4604F00F023032392A01D9D21DE7
:104D6000D2B20846491E1A542409002CF2D17E20E2
:104D70005854002200E0521C8A4202D2A85C20282B
:104D8000F9D1082903D20846491C185C00E020200C
:104D90001446521C2855082AF3D37CBD211001006B
:104DA0002DE9F04104460D46022D02D36069A84268
:104DB00001D8012609E04FF0FF362078012807D0FE
:104DC000022835D003284BD001263046BDE8F081BB
:104DD00005EB55076089216AB7FBF0F001442046D6
:104DE00000F010F90028F0D160893946B1FBF0F2EB
:104DF00000FB121121447F1C91F83080B7FBF0F0CA
:104E0000216A0144204600F0FDF80028DDD16089C8
:104E1000B7FBF0F100FB1170204490F8300048EA35
:104E20000020E90701D00609CFE7C0F30B06CCE765
:104E30006089216A4008B5FBF0F00144204600F08B
:104E4000E1F80028C1D161896800B0FBF1F201FBF3
:104E50001200204430300178407841EA0026B4E75F
:104E60006089216A8008B5FBF0F00144204600F01B
:104E7000C9F80028A9D16189A800B0FBF1F201FBB3
:104E80001200204430300178C27841EA0261827811
:104E90004078120442EA0020014321F0704694E772
:104EA000004870470000FC4210B504464FF0FF3048
:104EB0002368002B0BD0194600E0491C0A78202AF1
:104EC00001D33A2AF9D10A783A2A01D0002010BD3C
:104ED00013F8012B303A0A2AF9D28B42F7D1022A71
:104EE000F5D21046491C216010BD0246887ECB7E5B
:104EF00040EA03201278032A05D10A7D497D42EA5F
:104F0000012140EA01407047FCF7B6FB09484FF425
:104F100080610180C114018006498014891C0880C9
:104F2000FCF78EF9FEF7C2F803A0FEF7DFF800F0F9
:104F3000A7F9FEE7181C02400D0AB1FCBBF057466A
:104F40002D4E454F2D364D20475053C4A3BFE9B2D7
:104F5000E2CAD4C0FDB3CC0D0A000000F0B50B309E
:104F6000154D20F007010024144A0FE003688B421E
:104F70000BD38B4205D95E1A43184768C3E9006713
:104F800000E04368136002C004E0021D10680028BE
:104F9000ECD12046002802D1286808B10020F0BDDD
:104FA000064A07481060074A121A22F00702C0E9B1
:104FB000002401202860D7E76C0000206800002052
:104FC0009C2100209831002010B50023521E541C53
:104FD00005D010F8013B11F8014B1B1BF6D0184609
:104FE00010BD03E011F8013B00F8013B521E531CB9
:104FF000F8D17047C9B201E000F8011B521E531CE2
:10500000FAD1704770B504460E460025E06AB042FA
:1050100010D0204601F004F905465DB960780123FF
:10502000324604F13001FFF720F910B14FF0FF369E
:105030000125E662284670BDC2680A6102694A61BC
:1050400042698A618269CA61C26B0A62D0E912232D
:10505000C1E90C23D0E91423C1E9142390F82820D6
:105060004E2A14D0D0E9082383F00043C1E910236D
:1050700090F83820452A0DD0D0E90C2080F000406F
:10508000C1E91220086840F0010008607047D0E9CB
:105090000823EBE7D0E90C20F2E72DE9F0410026E8
:1050A00042684A62D0E90E23C1E90A23D0E91023FD
:1050B000C1E90C23D0E91223C1E90E2300234FF0EC
:1050C000010C002200EB83070DE0BC6854B102EB39
:1050D000820501EB8505D5F87880444502D1C5F8F5
:1050E0007CC0761C521C4C6F9442EEDC5B1C0C2B7B
:1050F000E7DB0E67086840F002000860BDE8F08159
:1051000070B5D0E900329A4231DC0C23B3EB820F48
:105110002DDB012A01DA0122426082684A67426877
:10512000521E92008368141DA34201DA9D1A00E00A
:105130000425002215E043685B1E02EB830302EBAB
:10514000820400EB840403EB830301EB8303E66832
:1051500043F8786F66699E60A669DE60E4691C6149
:10516000521CAA42E7DB086840F00400086070BDEA
:1051700070B505460C46287F412802D0562809D034
:105180000CE0216A022001B92062616A012905D17F
:10519000606203E000202062012060621C22294638
:1051A000201DFBF75EF895F828004E2820D0D5E9A1
:1051B000080181F00041C4E9100195F83800452844
:1051C00019D0D5E90C0181F00041C4E91201D5E9FB
:1051D00010010A4A0A4BFBF765F9C4E91601D5E943
:1051E0001201C4E91801206840F00800206070BD79
:1051F000D5E90801DFE7D5E90C01E6E76F1283C0C6
:10520000CAA1FD3FD0E90023C1E91823D0E9042356
:10521000C1E91A23426B006BC1E91602086840F02D
:1052200010000860704710B5C2B003460C4600205D
:105230000146FF2C0BDC2246194601A8FBF711F8AA
:1052400001A90020085541A901A800F074FF42B04F
:1052500010BD30B5C1B003460C4615460020FF2CEA
:105260000CDC224619466846FAF7FBFF00200DF8D1
:1052700004002A4640A96846FBF735F841B030BD26
:1052800030B5ADF6AC1D012243A14448FFF7ECF860
:10529000434C207020B1014642A0FDF727FFFEE7F6
:1052A000012249A14C48FFF705F9207028B14B486D
:1052B000FDF71CFF0DF6AC1D30BD00F065FD484943
:1052C000016000F061FD474941600DF5046000F0A8
:1052D00052FE0DF62C0000F0F3FB3F4D4CE0304B3E
:1052E00064221B1D04A93C48FFF790F90DF50463E7
:1052F00004A90DF62C00626800F04EF90123082283
:105300000DF501610DF64400FCF7A2F80DF61C0145
:10531000DDF8240806C90290CDE900120DF614024A
:10532000DDF810180CCA521C01F26C712EA0FDF7AA
:10533000DDFE0DF688000DF5086203C8CDE9000119
:105340000CCA30A0FDF7D2FE0DF50B6132A006C9E4
:10535000FDF7CCFE0DF5096238A00CCAFDF7C6FEBC
:105360000DF698023AA00CCAFDF7C0FE0DF50A62D0
:105370003CA00CCAFDF7BAFED5E902018842AED1C5
:105380001548E968FEF7B6FF0DF62C0000F074FB37
:105390001148FEF7A0FF8DE7303A000074000020AE
:1053A00010000020A3A1A3A15344BFA8B9D2D4D810
:1053B000CEC4BCFECFB5CDB3CAA7B0DCA1A328250F
:1053C00064290D0A00000000303A6770736C6F6743
:1053D0002E74787400000000A4100020A468000857
:1053E00075620008D54200080D0ACAB1BCE4256404
:1053F0002C25642C25642C25642C25642C25640D17
:105400000A0000000D0ACEB3B6C8A3BA25662CBEAA
:10541000ADB6C825660D0A000D0AD5FDD4DACAB9A5
:10542000D3C3B5C4CEC0D0C7A3BA25642CBFC9BCF2
:10543000FBCEC0D0C7A3BA25640000000D0ABAA3F2
:10544000B0CEB8DFB6C8A3BA256620C3D720000007
:105450000D0ACBD9B6C8A3BA2566206B6D2F68207C
:10546000000000000D0ABABDCFF2A3BA256620B62F
:10547000C80000000FB410B5ADF5816D00F084FCDC
:105480004468002C10D00DF2144340F2FF3101A803
:10549000DDF81024FDF73AFE01460020CDF80404A3
:1054A000002901DD01A8A0470DF5816D10BC5DF854
:1054B00014FB2DE9F04704468846174604EB08061E
:1054C000002000254FF0FF39C7F800900BE023784B
:1054D000242B02D108B1002407E02A2B0DD000B103
:1054E0005D40641C401CB442F1D33968002902DAE3
:1054F000002C00D00020BDE8F087611DB142F4D837
:10550000E1780D29F1D121790A29EED11022022169
:10551000601CFFF79EFE01463860301BA8EB0000C0
:10552000401DA942E1D0C7F800900024DDE700004B
:1055300070B50546052901DA002070BD154C05221D
:1055400028462168FAF7C2FEC8B1052228466168DC
:10555000FAF7BCFEA8B105222846A168FAF7B6FE04
:1055600088B105222846E168FAF7B0FE68B1052245
:1055700028462169FAF7AAFE48B1002070BD012033
:1055800070BD022070BD042070BD082070BD1020C9
:1055900070BD000050000020F8B506461D460024EE
:1055A00000200090304600F0C5FA28E0641C042872
:1055B00014D004DC012807D002281DD109E00828F6
:1055C00011D0102818D113E029460098FFF734FDB8
:1055D00012E029460098FFF760FD0DE0294600988B
:1055E000FFF78EFD08E029460098FFF7C1FD03E0B4
:1055F00029460098FFF706FE0098FFF765FB69460D
:10560000304600F085FA0028D0D12046F8BD0000D1
:1056100070B5CEB005460E46144680212046FAF7F6
:1056200039FE3146284600F098FC04F1680204F186
:105630006003CDE9093204F1780004F17001CDE98D
:105640000B10203A203BCDE9053220382039CDE936
:105650000710183A183BCDE901321C38011FCDE97B
:1056600003101C3800900EAB0EA23146284600F005
:105670008FFB0E2805D018A0FFF7FCFE00204EB0CF
:1056800070BD0EA8FAF711FE014622460EA8FDF7DE
:105690001DFE20B115A0FFF7EDFE0020EFE7012071
:1056A000EDE700002447504747412C25732C256621
:1056B0002C25432C25662C25432C25642C25642C75
:1056C00025662C25662C25432C25662C25432C2568
:1056D000662C25642A00000047504747412070612E
:1056E000727365206572726F7221000047504747E0
:1056F000412074696D6520706172736520657272F6
:105700006F72210070B590B005460E4614465021C8
:105710002046FAF7BFFD3146284600F01EFC04F192
:10572000480004F14001CDE90E10183804F13802A8
:10573000011F131FCDE90C320A1FCDE90A101038E2
:10574000011F131FCDE908320A1FCDE906101038DA
:10575000131F011FCDE904320A1F231DCDE90032BA
:10576000CDE90210234607A23146284600F010FB7F
:10577000112805D012A0FFF77DFE002010B070BDEB
:105780000120FBE72447504753412C25432C256437
:105790002C25642C25642C25642C25642C25642C54
:1057A00025642C25642C25642C25642C25642C254B
:1057B000642C25642C25662C25662C25662A000081
:1057C0004750475341207061727365206572726F54
:1057D0007221000070B592B005460E4614465C2159
:1057E0002046FAF757FD3146284600F0B6FB04F193
:1057F0005800011F0A1FCDE91010143804F14803A6
:10580000011FCDE90E320A1FCDE90C101438143BEC
:10581000011FCDE90A320A1FCDE908101438143BE4
:10582000011FCDE906320A1FCDE90410143B1438DC
:10583000211DCDE90232CDE9001023460E4A314642
:10584000284600F0A5FA6168491E8900A2680B1D70
:105850009A4201DA511A00E00421032202EB81018D
:10586000884201DB132805DD04A0FFF703FE0020BA
:1058700012B070BD0120FBE7EC68000847504753A9
:1058800056207061727365206572726F722100001C
:1058900070B5CEB005460E46144660212046FAF794
:1058A000F9FC3146284600F058FB04F15002CDE9DE
:1058B000094204F15900411ECDE90B10083A04F1E8
:1058C0004003CDE90532201D011DCDE90710203A26
:1058D000203BCDE9013234302831CDE903101C38AA
:1058E00000900EAB13A23146284600F051FA0D2865
:1058F00007D00E2805D01CA0FFF7BCFD00204EB03D
:1059000070BD0EA8FAF7D1FC014622460EA8FDF79D
:10591000DDFC20B119A0FFF7ADFD0020EFE7206806
:105920005A2801DA643020606068401E60600120FF
:10593000E5E70000244750524D432C25732C2543A6
:105940002C25662C25432C25662C25432C25662CDE
:1059500025662C2532642532642532642C25662C7C
:1059600025432C25432A00004750524D43207061A7
:10597000727365206572726F722100004750524D3C
:10598000432074696D652070617273652065727261
:105990006F72210070B588B005460E46144640214E
:1059A0002046FAF777FC3146284600F0D6FA04F193
:1059B000280204F12003CDE9033204F1380004F198
:1059C0003001CDE905102039203ACDE900212038F9
:1059D0000290234610A23146284600F0D9F9082843
:1059E00005D015A0FFF746FD002008B070BD207A55
:1059F00054280AD1207E4D2807D194F828004E283B
:105A000003D194F838004B2804D010A0FFF732FDE2
:105A10000020EAE70120E8E72447505654472C25A8
:105A2000662C25432C25662C25432C25662C2543E6
:105A30002C25662C25432A00475056544720706178
:105A4000727365206572726F722100004750565460
:105A500047207061727365206572726F72202866CC
:105A60006F726D6174206572726F7229210000007F
:105A7000002101610120704710B50446A068FFF7BE
:105A800023F9204600F06CF82046BDE810401421B0
:105A9000FAF700BC70B5054600262C68002C0CD027
:105AA000606808B1FFF710F92668A068286008B997
:105AB000002068602046FFF707F9304670BD0000FF
:105AC00070B50546002600F05FF98468FF2C01DC04
:105AD0004FF4807414212846FAF7DCFB2046FFF7C8
